:020000041008E2
:1000000000000828692C0910ED3D0910DD380910A1
:10001000F13D0910F53D0910F93D091000000000FF
:10002000000000000000000000000000553A091028
:10003000FD3D091000000000013E0910053E0910B9
:100040007F290910A5290910CB290910F1290910C8
:10005000172A09103D2A0910632A0910892A091054
:10006000093E09100D3E0910113E0910153E0910F8
:10007000193E09101D3E0910213E0910253E0910A8
:100080002DE9F84F8CB0DFF8000C00788DF82300D4
:100090005C208DF82000DFF8F40B00788DF821004B
:1000A000DFF8EC0B00788DF82200DFF8E84B2078C1
:1000B0008DF82400DFF8E05B28788DF82500DFF864
:1000C000DC6B3088ADF82600DFF8D47B3888ADF8DB
:1000D0002800DFF8D08B98F800008DF82A00DFF8B0
:1000E000C89B99F800008DF82B00DFF8C0AB9AF898
:1000F00000008DF82C00DFF8B8BB9BF800008DF8ED
:100100002D0008A802F004FBDFF87C0B00780790B4
:100110009BF8000006909AF80000059099F80000FE
:10012000049098F8000003902878029020780190BD
:10013000B7F900000090B6F90030DFF8540B0278F0
:10014000DFF8480B0178DFF86C0B02F087FB0DB08D
:10015000BDE8F08FF8B584B00A9C121A521C5B1AE5
:100160005B1C002506E0DFF8506B2F00BFB226F8BD
:1001700017406D1C2E001700B6B2BFB2BE42F2D3BC
:10018000002403949BB2029313009BB201930123BA
:10019000009313009BB2DFF8202B89B280B202F0EB
:1001A0000BFF05B0F0BD82B000918DF80420DDE9B1
:1001B0000023C0E9002302B070471CB50C002200E8
:1001C000D2B201006846FFF7EEFF00214FF47840FD
:1001D00002F077FD4FF478436A460421E4B224012B
:1001E000D4F1F004022094FBF0F080B203F000FAA6
:1001F00013BD37B50400E4B2142044431C34DBB211
:10020000002B26D04FF6FF752800009014F1130341
:100210009BB2EF22210089B20020FFF79BFF29004B
:100220004FF4784002F04DFD4FF4784301AAA11C31
:1002300089B20C2003F0DCF92A22A41C210089B227
:10024000D82002F045FD00214FF4784002F039FD3E
:1002500018E00020009014F113039BB2EF2221005C
:1002600089B20020FFF776FF00214FF4784002F0BA
:1002700028FD4FF4784301AAA41C210089B20C2068
:1002800003F0B6F937BDF0B40A00D2B2002A02D1A9
:10029000DFF8283A01E0DFF8283A0A00D2B2002A53
:1002A00001D1052400E00224002200250BE02E00ED
:1002B000F6B29E5DDFF80C7A94465FFA8CFC07F884
:1002C0000C60521C6D1C2E002700F6B2FFB2BE421D
:1002D000EDD3DFF8F03906241500EDB25C55521C61
:1002E000541CDFF8E4592E78092E04DADFF8DC69B3
:1002F0002D78755D02E0DFF8D4592D7AD2B29D5485
:10030000002209E0DFF8C8591600F6B2AD5D2600FC
:10031000F6B29D55641C521C1500EDB2032DF1DBA5
:10032000C9B201290FD1002109E0DFF8A8290D0089
:10033000EDB2525D2500EDB25A55641C491C0A000D
:10034000D2B2042AF1DBDFF890190B600C71D1E90D
:100350000023C0E90023F0BC7047E0B5DFF87C095A
:1003600001780A2901DA007800E00920DFF8701925
:100370000844009001208DF804004FF478436A4649
:100380001E21982003F034F907BD80B54FF6FF70A9
:1003900000902F23A7221C219820FFF7DBFE01BD30
:1003A000E0B50822DFF83C196846FFF7FCFE0123A0
:1003B000DDE900010A0001000020FFF71AFF4FF6F7
:1003C000FF714FF4784002F07CFC3A221E218C2011
:1003D00002F07EFCFFF7C1FF00214FF4784002F0ED
:1003E00070FC07BD70B50C001500010009B20029B2
:1003F00003D5060036B2764201E00600B6B200B27E
:10040000002801D52D2200E02B22D2B2290089B28A
:10041000200080B202F05CFC300080B2642190FBCE
:10042000F1F23032D2B2290089B214F1080080B260
:1004300002F04EFC2E22290089B214F1100080B285
:1004400002F046FC300080B20A2190FBF1F20A2053
:1004500092FBF0F100FB11223032D2B2290089B2B6
:1004600014F1180080B202F033FCB6B20A2096FBF9
:10047000F0F100FB116630363200D2B2290089B2A9
:100480002034200080B202F023FC70BD7CB5050052
:100490000E001400EDB2142045431C352000C0B2FC
:1004A000002802D04FF6FF7100E00021DBB2002BE4
:1004B00020D089B24FF4784002F003FCF6B2002E4F
:1004C00004D0DFF8D807B0F9000003E0DFF8D00768
:1004D000B0F90000AD1C2A0092B25C2100B2FFF717
:1004E00081FFE4B2002C10D000214FF4784002F0DC
:1004F000E8FB0AE089B2009115F113039BB2832255
:10050000290089B25C20FFF725FE73BD2DE9F84173
:1005100087B005000F0014001E00EDB21420454303
:100520001C352000C0B2002802D04FF6FF7801E051
:100530005FF000080222DFF8B01705A8FFF733FECE
:100540000222DFF8A81703A8FFF72DFE0122DFF82B
:10055000A01701A8FFF727FE404680B2009015F1D2
:1005600013039BB2EF22290089B20020FFF7F2FDAE
:10057000414689B24FF4784002F0A3FB4FF4784330
:1005800005AAA91C89B20C2003F032F83800C0B2C9
:10059000002801D0782200E07922D2B2A91C89B2C9
:1005A0002C2002F095FB4FF4784303AAA91C89B2D2
:1005B000342003F01DF83A22A91C89B2542002F01D
:1005C00087FBF6B2002E12D0FFB2002F04D0DFF866
:1005D000CC06B0F9000003E0DFF8C406B0F9000073
:1005E000AA1C92B25C2100B2FFF7FCFE0CE01FFADD
:1005F00088F8CDF8008015F113039BB283222900FF
:1006000089B25C20FFF7A6FD4FF4784301AAA91C2C
:1006100089B2842002F0ECFF2000C0B2002806D08E
:100620002A22AD1C290089B2D82002F051FBE4B285
:10063000002C04D000214FF4784002F042FB08B0B7
:10064000BDE8F08170B50C001500C0B2052110FBAB
:1006500001F63022290089B2200080B202F038FB76
:100660002E22290089B214F1080080B202F030FB7A
:10067000300080B20A2190FBF1F23032D2B2290070
:1006800089B214F1100080B202F022FBB6B20A2047
:1006900096FBF0F100FB116630363200D2B2290031
:1006A00089B21834200080B202F012FB70BD7CB514
:1006B00004000D001600E4B2142044431C34300042
:1006C000C0B2002802D04FF6FF7100E00021DBB27B
:1006D000002B14D089B24FF4784002F0F2FAA41C37
:1006E000220092B25C212878FFF7ACFFF6B2002E10
:1006F00010D000214FF4784002F0E3FA0AE089B20A
:10070000009114F113039BB27B22210089B25C207B
:10071000FFF720FD73BD2DE9FF4107000D00140018
:100720001E00FFB2142047431C373000C0B200281F
:1007300002D04FF6FF7801E05FF000082000C0B261
:10074000002806D00422DFF8DC1B01A8FFF72BFDF0
:1007500005E00422DFF8D01B01A8FFF724FD404686
:1007600080B2009017F113039BB2EF22390089B2D7
:100770000020FFF7EFFC414689B24FF4784002F0C9
:10078000A0FAE4B2002C01D0782200E079220A9C81
:10079000D2B2B91C89B20C2002F09AFA4FF4784315
:1007A00001AAB91C89B2142002F022FF3A22B91C16
:1007B00089B2542002F08CFAE4B2002C06D0BA1CA4
:1007C00092B25C212878FFF73DFF0CE01FFA88F811
:1007D000CDF8008017F113039BB27B22390089B258
:1007E0005C20FFF7B7FCC0A2B91C89B27C2002F0E4
:1007F00073FB3000C0B2002806D02A22BF1C39008B
:1008000089B2D82002F064FAF6B2002E04D000219A
:100810004FF4784002F055FABDE8FF817CB5040042
:100820000D001600E4B2142044431C343000C0B262
:10083000002802D04FF6FF7100E00021DBB2002B50
:1008400014D089B24FF4784002F03BFAA41C220085
:1008500092B234212878FFF7F5FEF6B2002E10D0C0
:1008600000214FF4784002F02CFA0AE089B200919E
:1008700014F113039BB25322210089B23420FFF7F5
:1008800069FC73BD2DE9F84185B005000E00140028
:100890001F00EDB2142045431C352000C0B20028D3
:1008A00002D04FF6FF7801E05FF000080222DFF887
:1008B0007C1A03A8FFF777FC0122DFF8341401A8A3
:1008C000FFF771FC404680B2009015F113039BB214
:1008D000EF22290089B20020FFF73CFC414689B293
:1008E0004FF4784002F0EDF94FF4784303AAA91CC5
:1008F00089B20C2002F07CFE3A22A91C89B22C207D
:1009000002F0E6F9FFB2002F06D0AA1C92B2342101
:100910003078FFF797FE0CE01FFA88F8CDF80080DA
:1009200015F113039BB25322290089B23420FFF73B
:1009300011FC4FF4784301AAA91C89B2542002F09B
:1009400057FE2000C0B2002806D02A22AD1C290084
:1009500089B2D82002F0BCF9E4B2002C04D0002106
:100960004FF4784002F0ADF906B0BDE8F081E0B593
:10097000C7480078002801D0002000E00120DFF8FF
:10098000B0190844009001208DF804004FF6FF7163
:100990004FF4784002F095F94FF478436A461E21EF
:1009A000A42002F025FE00214FF4784002F089F9DE
:1009B00007BD80B54FF6FF7000902F23B3221C2196
:1009C000A420FFF7C7FB01BDE0B50922DFF86419D9
:1009D0006846FFF7E8FB0123DDE900010A0001009A
:1009E0000020FFF706FCFFF7C2FF07BDE0B5A648F1
:1009F0000078002801D0022000E00020DFF838193C
:100A00000844009002208DF804004FF6FF714FF467
:100A1000784002F056F94FF478436A461E2184204C
:100A200002F0E6FD00214FF4784002F04AF907BDDC
:100A300080B54FF6FF7000902F23A3221C21842045
:100A4000FFF788FB01BDE0B50722DFF8F018684624
:100A5000FFF7A9FB0123DDE900010A0001000020E6
:100A6000FFF7C7FBFFF7C2FF07BD30B4002100222C
:100A70000BE0DFF8CC381400E4B21B5DDFF8C448AB
:100A80000D00EDB26355491C521C1300DBB2042B60
:100A9000EFDB4A1C8C4B1C78092C04DADFF8A848E1
:100AA0001B78E35C02E0DFF8A0381B7ADFF894489B
:100AB000C9B26354002109E0DFF890380D00EDB2AF
:100AC0005B5D1500EDB26355521C491C0B00DBB297
:100AD000052BF1DBDFF878180C600A71D1E90023EF
:100AE000C0E9002330BC70476D2F73007CB5050052
:100AF0000E001400EDB2142045431C352000C0B296
:100B0000002802D04FF6FF7100E00021DBB2002B7D
:100B100020D089B24FF4784002F0D3F8F6B2002E1C
:100B200004D0DFF83008B0F9000003E0DFF828084F
:100B3000B0F90000AD1C2A0092B24C2100B2FFF7C0
:100B400051FCE4B2002C10D000214FF4784002F0A8
:100B5000B8F80AE089B2009115F113039BB2732231
:100B6000290089B24C20FFF7F5FA73BD2DE9F84151
:100B700085B005000F0014001E00EDB2142045439F
:100B80001C352000C0B2002802D04FF6FF7801E0EB
:100B90005FF000080322DFF8C41703A8FFF703FB88
:100BA0000122534901A8FFF7FEFA404680B20090A7
:100BB00015F113039BB2EF22290089B20020FFF741
:100BC000C9FA414689B24FF4784002F07AF8380009
:100BD000C0B2002801D0782200E07922D2B2A91C4C
:100BE00089B20C2002F074F84FF4784303AAA91CD0
:100BF00089B2142002F0FCFC3A22A91C89B24420DC
:100C000002F066F8F6B2002E12D0FFB2002F04D028
:100C1000DFF84007B0F9000003E0DFF83C07B0F967
:100C20000000AA1C92B24C2100B2FFF7DBFB0CE0E3
:100C30001FFA88F8CDF8008015F113039BB27322D8
:100C4000290089B24C20FFF785FA4FF4784301AAB6
:100C5000A91C89B2742002F0CBFC2000C0B200288D
:100C600006D02A22AD1C290089B2D82002F030F823
:100C7000E4B2002C04D000214FF4784002F021F8B7
:100C800006B0BDE8F0810000B3150228B6070228BF
:100C9000B9070228BA070228BB0702288E150228C6
:100CA00090150228BC070228BD070228BE070228AB
:100CB000BF07022844330910D0090228FC3C091060
:100CC0006686081028140228B1150228EC3B09108A
:100CD000503D0910543D09104C140228B707022852
:100CE000F83B09108C3C091056710810C2710810AD
:100CF00066870810DCB5C0B2002845D0022800F095
:100D0000918068D3042800F0A980C0F09F80062855
:100D100000F0D880C0F0B680082800F00781C0F04D
:100D2000F1800A2800F02781C0F008810C2800F02B
:100D30005A81C0F03D810E2800F05D81C0F06E81C7
:100D4000102800F0A181C0F08181122800F0CC8130
:100D5000C0F0B881142800F0F181C0F0DA811628C3
:100D600000F01382C0F0FC81182800F03582C0F03A
:100D700021821A2800F06E82C0F04D821C2800F0FB
:100D8000A782C0F08682B5E20621DFF8D405FFF71E
:100D900014FA00241AE0002308E02000DFF8C4154C
:100DA0000968C0B2C9B28842F5D10123DBB2DFF8CD
:100DB000B8052100C9B200EBC100D0E900673100DD
:100DC0003A002000C0B2FFF714FA641C2000C0B241
:100DD0000428E2DB8EE20421DFF89005FFF7EDF94D
:100DE00000241AE0002308E02000DFF878150968E5
:100DF000C0B2C9B28842F5D10123DBB2DFF8700579
:100E00002100C9B200EBC100D0E9006731003A000F
:100E10002000C0B2FFF7EDF9641C2000C0B2062824
:100E2000E2DB67E20421DFF84405FFF7C6F905229B
:100E3000DFF840156846FFF7B6F90123DDE9000148
:100E40000A0001000020FFF7D4F953E20421DFF883
:100E50001C05FFF7B2F9FFF7A3FA4BE20421DFF814
:100E60000C05FFF7AAF90822DFF80C156846FFF712
:100E70009AF90123DDE900010A0001000020FFF7D3
:100E8000B8F937E20421DFF8E404FFF796F900210E
:100E90006846FFF7F8F90123DDE900010A000100C7
:100EA0000020FFF7A6F90922DFF8D0146846FFF703
:100EB0007AF90123DDE900010A0001000120FFF7B2
:100EC00098F917E20421DFF8A404FFF776F901216D
:100ED0006846FFF7D8F90123DDE900010A000100A7
:100EE0000020FFF786F90822DFF894146846FFF720
:100EF0005AF90123DDE900010A0001000120FFF792
:100F000078F9F7E10421DFF86404FFF756F90822C5
:100F1000DFF870146846FFF746F90123DDE90001A8
:100F20000A0001000020FFF764F9E3E10421DFF883
:100F30003C04FFF742F9FFF786FDDBE10421DFF80F
:100F40002C04FFF73AF96846FFF78FFD0023DDE92F
:100F500000010A0001000020FFF74BF901230122E4
:100F600001210120FFF702FE0123002200210220BF
:100F7000FFF7FCFDBEE10421DFF8F003FFF71DF9E8
:100F80006846FFF772FD0023DDE900010A00010059
:100F90000020FFF72EF90123002201210120FFF795
:100FA000E5FD0123012200210220FFF7DFFDA1E181
:100FB0000421DFF8B803FFF700F90522DFF8C813B2
:100FC0006846FFF7F0F80023DDE900010A000100A0
:100FD0000020FFF70EF901230122DFF8B0130120F2
:100FE000FFF750FC86E10421DFF88003FFF7E5F806
:100FF000FFF7EAFC7EE10421DC48FFF7DEF8082277
:10100000DFF88C136846FFF7CEF80123DDE9000115
:101010000A0001000020FFF7ECF86BE10421D3483F
:10102000FFF7CBF80522D8496846FFF7BCF8002344
:10103000DDE900010A0001000020FFF7DAF80123D2
:101040000122D4490120FFF71DFC53E10421C748C8
:10105000FFF7B3F80722D0496846FFF7A4F800234A
:10106000DDE900010A0001000020FFF7C2F80123BA
:10107000012201210120FFF749FA0123002200216A
:101080000220FFF743FA35E10421B848FFF795F84D
:101090000722C1496846FFF786F80023DDE9000111
:1010A0000A0001000020FFF7A4F80123002201211B
:1010B0000120FFF72BFA0123012200210220FFF774
:1010C00025FA17E10421A948FFF777F80922B34967
:1010D0006846FFF768F80123DDE900010A00010016
:1010E0000020FFF786F805E10421A048FFF765F826
:1010F0000120009001230122A9490020FFF70BFBEA
:101100000120009000230022A6490120FFF703FBE5
:10111000F0E004219548FFF750F8012000900023EB
:1011200001229F490020FFF7F6FA012000900123D9
:1011300000229C490120FFF7EEFADBE004218B48F6
:10114000FFF73BF8082298496846FFF72CF801237F
:10115000DDE900010A0001000020FFF74AF8C9E0BC
:1011600009219248FFF729F801200090012301226C
:101170008F490020FFF7CFFA0120009000230022C2
:101180008C490120FFF7C7FAB4E009218748FFF72F
:1011900014F8012000900023012285490020FFF768
:1011A000BAFA012000900123002282490120FFF7B2
:1011B000B2FA9FE009217D48FEF7FFFF0B227E492E
:1011C0006846FEF7F0FF0123DDE900010A00010097
:1011D0000020FFF70EF88DE005217848FEF7EDFFBF
:1011E000042277496846FEF7DEFF0123DDE90001AE
:1011F0000A0001000020FEF7FCFF07227149684643
:10120000FEF7D1FF0123DDE900010A000100012002
:10121000FEF7EFFF6EE005216848FEF7CEFF0322E0
:1012200069496846FEF7BFFF0123DDE900010A00B6
:1012300001000020FEF7DDFF082264496846FEF742
:10124000B2FF0123DDE900010A0001000120FEF7E1
:10125000D0FF4FE005215948FEF7AFFF03225C495C
:101260006846FEF7A0FF0123DDE900010A00010046
:101270000020FEF7BEFF052256496846FEF793FFA1
:101280000123DDE900010A0001000120FEF7B1FFA2
:1012900030E005214948FEF790FF03224E49684699
:1012A000FEF781FF0123DDE900010A0001000020B3
:1012B000FEF79FFF042249496846FEF774FF0123A9
:1012C000DDE900010A0001000120FEF792FF11E0B4
:1012D00008214348FEF771FF072242496846FEF79E
:1012E00062FF0123DDE900010A0001000020FEF792
:1012F00080FFFFE7D3BD80B5002001F0B5FF0120DE
:1013000001F0DBFC384801F0A9FA00214FF47840E5
:1013100001F0D7FC002001F06AFC34480078FFF7A8
:10132000E9FC01BD343D0910383D0910527C08101C
:10133000EE850810BC3B09102C3D0910C43C091077
:10134000583D091034140228043C0910043D0910CA
:10135000541402288A1502288C150228303D0910E1
:101360004C3C09105C140228BC380910243D0910BB
:10137000003509106C3C0910943C0910B03B091071
:10138000743C09107C3C0910B43C0910BB070228CE
:10139000A43C0910BA070228AC3C0910C83B09104C
:1013A000BC070228BD070228D43C0910D43B091011
:1013B000BE070228BF070228E03B0910543C091071
:1013C0003C3D0910DC3C0910403D0910E43C09108B
:1013D000443D0910EC3C0910483D09104C3D0910F2
:1013E0005C3C0910F43C0910603B0910B015022860
:1013F000F8B5DFF8985CDFF8984C207829788842B7
:101400002ED000214FF4784001F05BFC002001F069
:10141000EEFB0020DFF87C1C08602078022814D046
:101420002078042811D0207807280ED020781C2896
:101430000BD020780E2808D02078112805D02078ED
:10144000142802D02078172805D1DFF84C0C00882A
:10145000DFF8481C08802078FFF74CFC20782870C3
:10146000207800283AD0012800F0A680032800F058
:10147000B481052800F01882062800F0328208287E
:1014800000F06382092800F0AB820A2800F0448350
:101490000B2800F0FE830C2800F084840D2800F057
:1014A000E2840F2800F06485102800F000861228DE
:1014B00000F0A586132800F02187152800F0B887D2
:1014C000162801F03080182801F0A880192801F0B2
:1014D000B5801A2801F0C28001F0D4B8002002F0D3
:1014E00004F90100C9B2012902D0C0B202282BD1EF
:1014F000DFF8A05B2E682868401C2860042029685B
:101500002A6892FBF0F200FB12102860002002F023
:10151000F0F8DFF8B07C00233000C0B207EBC00267
:10152000D2E900010A0001003000C0B2FEF761FEFE
:101530000123286807EBC000D0E9006731003A00BA
:101540002868C0B2FEF755FE012002F0CEF8010077
:10155000C9B2012902D0C0B202282BD1012002F069
:10156000C8F8DFF8301B0868002802D1012020707D
:1015700020E00868012802D1182020701AE00868CD
:1015800002280DD1DFF8100B0088142190FBF1F038
:1015900010F00100DFF8301C08701520207009E001
:1015A00002F026FE1C202070DFF8EC0A0088DFF82D
:1015B000EC1A088001F066B8002002F096F80100ED
:1015C000C9B2012902D0C0B202282BD1DFF8C45A17
:1015D0002E682868401C2860062029682A6892FB2B
:1015E000F0F200FB12102860002002F082F8DFF811
:1015F000DC7B00233000C0B207EBC002D2E900015F
:101600000A0001003000C0B2FEF7F3FD0123286894
:1016100007EBC000D0E9006731003A002868C0B28B
:10162000FEF7E7FD012002F060F80100C9B20129D0
:1016300003D0C0B2022840F0CE80012002F059F859
:10164000DFF8501A086800283FD1DFF8840B0078D3
:1016500000280CD102F03EFD02F0D3FC07202070E0
:10166000DFF8340A0088DFF8341A0880B3E0DFF8C6
:10167000640B007801281BD10020DFF85C1B087088
:101680000020DFF8581B08800020DFF8541B08807A
:1016900002F020FDDFF8000A0088142190FBF1F031
:1016A00010F00100DFF83C1B08700B20207092E066
:1016B0000020DFF8241B08700020DFF82C1B0870C6
:1016C00002F008FD0520207085E0086801280DD192
:1016D000DFF8C4090088142190FBF1F010F001003C
:1016E000DFF8081B08700820207074E008680228E2
:1016F00011D10120DFF8001D0870DFF89C09008877
:10170000142190FBF1F010F00100DFF8F01C0870DC
:10171000032020705FE0086803280DD1DFF8780906
:101720000088142190FBF1F010F00100DFF8D01CCC
:1017300008700C2020704EE0086804280DD1DFF8F6
:1017400058090088142190FBF1F010F00100DFF837
:10175000B41C0870122020703DE001F037F802F050
:10176000B9FC0120DFF8681A08700020DFF8981C27
:1017700008700020DFF8941C08800020DFF8901C1F
:1017800008800420DFF88C1C08700420DFF8881C17
:1017900008700620DFF8841C08700620DFF8801C23
:1017A00008700620DFF87C1C08700620DFF8781C23
:1017B00008700020DFF81C1A087002F02AFCDFF81D
:1017C0006C0C01F04BF802202070DFF8CC08008888
:1017D000DFF8C818088000F055BF002001F085FF31
:1017E0000100C9B2012902D0C0B202280CD10020E8
:1017F00001F07FFFDFF8000C0178092902DA017897
:10180000491C0170FEF7A9FD032001F06EFF0100E5
:10181000C9B2012902D0C0B202280CD1032001F0C4
:1018200068FFDFF8D41B0878002802D00878401E33
:101830000870FEF792FD012001F057FF0100C9B2C8
:10184000012902D0C0B2022814D1012001F051FFB9
:10185000DFF8A40B0078DFF87819087002F0D9FBE4
:10186000FEF70EFC04202070DFF82C080088DFF85B
:101870002C180880DFF820080088142190FBF1F074
:1018800010F00100DFF8741B02000B78D2B29A420C
:1018900008D00870C0B2002802D0FEF75EFD01E05B
:1018A000FEF773FD00F0EEBE032001F01EFF010005
:1018B000C9B2012902D0C0B2022810D1032001F020
:1018C00018FFDFF824592878002804D102F05AFACA
:1018D0000120287003E002F091FA0620207000F049
:1018E000D1BE032001F001FF0100C9B2012902D0DD
:1018F000C0B2022827D1032001F0FBFE02F0D4FA87
:10190000DFF8CC58DFF8D0080178491C2A789142DA
:1019100005DA0178491C01700520207013E002F0FF
:1019200070FB02F074FB297800F00FFF2978DFF8D4
:10193000E80C00F093FF07202070DFF85C070088B8
:10194000DFF85817088000F09DBE002001F0CDFEA2
:101950000100C9B2012902D0C0B2022815D100206D
:1019600001F0C7FEDFF86C08017891F00101017009
:10197000FFF73CF8DFF820070088142190FBF1F016
:1019800010F00100DFF864180870012001F0ADFECE
:101990000100C9B2012902D0C0B2022806D101203B
:1019A00001F0A7FEFEF76CFB01202070DFF8E806CF
:1019B0000088142190FBF1F010F00100DFF82C18E2
:1019C00002000B78D2B29A4208D00870C0B2002848
:1019D00002D0FFF70BF801E0FFF72AF800F052BE43
:1019E000002001F082FE0100C9B2012902D0C0B27C
:1019F000022824D1002001F07CFEDFF8E017B1F9C5
:101A00000000B0F5487F09DAB1F90020DFF8080AD4
:101A100003780520434303FA82F008800123012262
:101A200001210120FFF762F8DFF86C06008814211D
:101A300090FBF1F010F00100DFF8A8170870032008
:101A400001F053FE0100C9B2012902D0C0B2022840
:101A500026D1032001F04DFEDFF88017B1F9000018
:101A6000DFF8942C90420ADBB1F90020DFF8A809D6
:101A700003787FF00400434303FA82F008800123D7
:101A8000012201210120FFF731F8DFF80C06008860
:101A9000142190FBF1F010F00100DFF848170870F6
:101AA000012001F022FE0100C9B2012902D0C0B21A
:101AB00002280FD1012001F01CFEDFF8DC050088B0
:101AC000142190FBF1F010F00100DFF818170870F6
:101AD0000A202070DFF8C0050088142190FBF1F087
:101AE00010F00100DFF8FC1602000B78D2B29A4227
:101AF00010D00870C0B2002806D0012301220121B5
:101B00000120FEF7F3FF05E000230122012101205F
:101B1000FEF7ECFF00F0B6BD002001F0E6FD01008D
:101B2000C9B2012902D0C0B2022824D1002001F09C
:101B3000E0FDDFF8AC16B1F90000B0F5487F09DA36
:101B4000B1F90020DFF8D00803780520434303FAF9
:101B500082F008800123012200210220FEF7C6FF47
:101B6000DFF834050088142190FBF1F010F001003B
:101B7000DFF870160870032001F0B7FD0100C9B24C
:101B8000012902D0C0B2022826D1032001F0B1FD04
:101B9000DFF84C16B1F90000DFF85C2B90420ADB4D
:101BA000B1F90020DFF8700803787FF004004343A8
:101BB00003FA82F008800123012200210220FEF7AF
:101BC00095FFDFF8D4040088142190FBF1F010F0A9
:101BD0000100DFF810160870012001F086FD0100F9
:101BE000C9B2012902D0C0B2022830D1012001F0CF
:101BF00080FDDFF8E465DFF8E805B0F90020DFF8E4
:101C0000DC05B0F90010307802F0B0F9DFF8C0550B
:101C10003078401C2978884205DA3078401C3070D2
:101C20000920207013E002F0ECF902F0F0F92978B5
:101C300000F08BFD2978DFF8E00900F00FFE0720A7
:101C40002070DFF854040088DFF850140880DFF8B3
:101C500048040088142190FBF1F111F00101DFF834
:101C600084050A000378D2B29A4210D00170C9B23A
:101C7000002906D00123012200210220FEF736FFB1
:101C800005E00023012200210220FEF72FFF00F0D3
:101C9000F9BC002001F029FD0100C9B2012902D0E0
:101CA000C0B202281AD1002001F023FDDFF8681726
:101CB00008780A2802DA0878401C087001230122FB
:101CC0000120FEF7ABFDDFF8D0030088142190FB64
:101CD000F1F010F00100DFF80C150870032001F09E
:101CE00004FD0100C9B2012902D0C0B202281AD1F4
:101CF000032001F0FEFCDFF820170878022802DB41
:101D00000878401E0870012301220120FEF786FD9D
:101D1000DFF884030088142190FBF1F010F001003B
:101D2000DFF8C0140870012001F0DFFC0100C9B227
:101D3000012902D0C0B2022811D1012001F0D9FC42
:101D4000FEF79EF9DFF850030088142190FBF1F0B4
:101D500010F00100DFF88C14087009202070CE48C4
:101D60000088142190FBF1F111F00101DFF87404F7
:101D70000A000378D2B29A4212D00170C9B2002987
:101D800007D001230122DFF890160120FEF746FD5F
:101D900006E000230122DFF880160120FEF73EFD59
:101DA00000F070BC002001F0A0FC0100C9B20129C4
:101DB00002D0C0B2022814D1002001F09AFCDFF852
:101DC0004806017891F001010170FEF7D0FDB2489C
:101DD0000088142190FBF1F010F00100DFF82016CC
:101DE0000870012001F081FC0100C9B2012902D074
:101DF000C0B202281ED1012001F07BFC02F009F9DB
:101E0000FEF73EF9DFF80006007800280CD0A24863
:101E10000088142190FBF1F010F00100DFF8E015CC
:101E200008700D20207005E00E2020709A48008870
:101E30009A49088098480088142190FBF1F010F02E
:101E40000100DFF8BC1502000B78D2B29A4208D02C
:101E50000870C0B2002802D0FEF789FD01E0FEF74D
:101E6000A8FD00F00FBC002001F03FFC0100C9B24A
:101E7000012902D0C0B2022819D1002001F039FC9A
:101E8000DFF8901508780A2802DA0878401C0870F4
:101E9000012301220120FEF7C1FC7F4800881421A4
:101EA00090FBF1F010F00100DFF8541508700320EA
:101EB00001F01BFC0100C9B2012902D0C0B2022806
:101EC00019D1032001F015FCDFF848150878022825
:101ED00002DB0878401E0870012301220120FEF772
:101EE0009DFC6D480088142190FBF1F010F001007A
:101EF000DFF80C150870012001F0F7FB0100C9B2F2
:101F0000012902D0C0B2022810D1012001F0F1FB5A
:101F1000FEF7B6F860480088142190FBF1F010F04D
:101F20000100DFF8DC1408700F2020705A48008888
:101F3000142190FBF1F111F00101DFF8C4040A0053
:101F40000378D2B29A4212D00170C9B2002907D0E8
:101F500001230122DFF8BC140120FEF75FFC06E03C
:101F600000230122DFF8AC140120FEF757FC89E3BF
:101F7000002001F0BAFB0100C9B2012902D0C0B2B1
:101F8000022822D1002001F0B4FBDFF88014B1F95F
:101F90000000C82809DAB1F90020DFF878040378D6
:101FA0000520434303FA82F0088001230122012126
:101FB0000120FEF76BFA38480088142190FBF1F0FD
:101FC00010F00100DFF838140870032001F08DFBD9
:101FD0000100C9B2012902D0C0B2022824D10320D5
:101FE00001F087FBDFF82414B1F9000010F1C70FEE
:101FF0000ADBB1F90020DFF81C0403787FF004004D
:10200000434303FA82F008800123012201210120C9
:10201000FEF73CFA20480088142190FBF1F010F004
:102020000100DFF8DC130870012001F05EFB010005
:10203000C9B2012902D0C0B202280ED1012001F09C
:1020400058FB15480088142190FBF1F010F00100B6
:10205000DFF8AC130870102020700F48008814219E
:1020600090FBF1F111F00101DFF894030A0003780D
:10207000D2B29A421AD00170C9B2002910D00123FD
:10208000012201210120FEF701FA0FE0B415022818
:10209000B01502285C14022892150228881502281F
:1020A0000023012201210120FEF7F0F9EAE20020DD
:1020B00001F01BFB0100C9B2012902D0C0B2022805
:1020C00021D1002001F015FBDFF84413B1F9000025
:1020D000C82808DAB1F90020CE4803780520434328
:1020E00003FA82F008800123012200210220FEF77A
:1020F000CDF9DFF808060088142190FBF1F010F00C
:102100000100BF490870032001F0EFFA0100C9B2D5
:10211000012902D0C0B2022822D1032001F0E9FA3D
:10212000BB49B1F9000010F1C70F09DBB1F900207C
:10213000B84803787FF00400434303FA82F0088034
:102140000123012200210220FEF7A0F9DFF8AC05EF
:102150000088142190FBF1F010F00100A8490870EC
:10216000012001F0C2FA0100C9B2012902D0C0B2B7
:1021700002280ED1012001F0BCFA01F04AFFFDF760
:102180007FFF11202070DFF874050088DFF87015DC
:102190000880DFF868050088142190FBF1F111F048
:1021A000010197480A000378D2B29A4226D0017002
:1021B000C9B200291CD00123012200210220FEF710
:1021C00065F91BE0BC380910C20702280035091068
:1021D000B6070228B3150228B11502288A1502286D
:1021E0008C150228C4070228B2150228C30702284A
:1021F0000023012200210220FEF748F942E20020DC
:1022000001F073FA0100C9B2012902D0C0B202285C
:1022100018D1002001F06DFA804908780A2802DA06
:102220000878401C0870012301220020FEF73FFAC5
:10223000DFF8C8040088142190FBF1F010F00100D1
:1022400070490870032001F050FA0100C9B2012959
:1022500002D0C0B2022818D1032001F04AFA6F4917
:102260000878002802D00878401E08700123012257
:102270000020FEF71CFADFF884040088142190FB8C
:10228000F1F010F001005F490870012001F02DFA13
:102290000100C9B2012902D0C0B202280ED101202A
:1022A00001F027FADFF854040088142190FBF1F0C4
:1022B00010F001005349087013202070DFF83C042F
:1022C0000088142190FBF1F010F001004D4902004C
:1022D0000B78D2B29A4210D00870C0B2002806D053
:1022E000012301224D490020FEF7E1F905E000231A
:1022F00001224A490020FEF7DAF9C3E1002001F08B
:10230000F4F90100C9B2012902D0C0B2022818D1E3
:10231000002001F0EEF9424908780A2802DA08782C
:10232000401C0870012301220120FEF7C0F9DFF8EC
:10233000CC030088142190FBF1F010F0010031492A
:102340000870032001F0D1F90100C9B2012902D0BF
:10235000C0B2022818D1032001F0CBF93049087827
:10236000002802D00878401E0870012301220120B5
:10237000FEF79DF9DFF884030088142190FBF1F04B
:1023800010F001001F490870012001F0AEF90100B2
:10239000C9B2012902D0C0B202280CD1012001F03B
:1023A000A8F9FDF76DFE14202070DFF850030088B7
:1023B000DFF84C130880DFF844030088142190FBF9
:1023C000F1F111F001010F480A000378D2B29A42EC
:1023D00010D00170C9B2002906D001230122104992
:1023E0000120FEF764F905E0002301220C490120D9
:1023F000FEF75DF946E100BFB7070228B8070228DB
:10240000C0070228C1070228B90702288E15022832
:1024100090150228BA070228BB070228BC07022829
:10242000BD070228BE070228BF0702287439091019
:10243000002001F05AF90100C9B2012902D0C0B24E
:10244000022817D1002001F054F9AE4908780A2873
:1024500002DA0878401C0870012301220020FEF7F0
:1024600026F9A6480088142190FBF1F010F0010035
:10247000A5490870032001F038F90100C9B201290B
:1024800002D0C0B2022817D1032001F032F99D49D1
:102490000878002802D00878401E08700123012225
:1024A0000020FEF704F995480088142190FBF1F014
:1024B00010F0010094490870012001F016F90100A4
:1024C000C9B2012902D0C0B202280DD1012001F009
:1024D00010F98A480088142190FBF1F010F00100F7
:1024E000894908701620207084480088142190FBC8
:1024F000F1F010F00100844902000B78D2B29A4248
:1025000010D00870C0B2002806D0012301227D49F6
:102510000020FEF7CCF805E00023012279490020D5
:10252000FEF7C5F8AEE0002001F0DFF80100C9B207
:10253000012902D0C0B2022817D1002001F0D9F839
:10254000724908780A2802DA0878401C08700123CA
:1025500001220120FEF7ABF868480088142190FBA7
:10256000F1F010F0010068490870032001F0BDF897
:102570000100C9B2012902D0C0B2022817D103203C
:1025800001F0B7F861490878002802D00878401EA9
:102590000870012301220120FEF789F857480088BE
:1025A000142190FBF1F010F0010057490870012050
:1025B00001F09BF80100C9B2012902D0C0B2022883
:1025C0000AD1012001F095F8FDF75AFD172020707F
:1025D0004A4800884A49088048480088142190FBEE
:1025E000F1F111F0010148480A000378D2B29A4291
:1025F00010D00170C9B2002906D00123012243493D
:102600000120FEF754F805E0002301223F49012094
:10261000FEF74DF836E000BF9C380910012001F0AC
:1026200064F80100C9B2012902D0C0B2022804D165
:10263000012001F05EF81920207023E0012001F054
:1026400054F80100C9B2012902D0C0B2022804D155
:10265000012001F04EF81A20207013E0032001F051
:1026600044F80100C9B2012902D0C0B2022808D141
:10267000032001F03EF801F05DFD002801D01B2091
:102680002070FFE7022001F030F80100C9B20129F3
:1026900002D0C0B2022804D1022001F02AF80020A2
:1026A00020702078022814D02078042811D02078B7
:1026B00007280ED020781C280BD020780E2808D0B0
:1026C0002078112805D02078142802D020781728E7
:1026D00011D10A4801880A480088091A64290ADBCE
:1026E00020781C2802D02078172802D100202070E2
:1026F00001E001202070F1BDE1FCFFFF92150228EE
:1027000088150228BE070228C2070228BF07022830
:1027100010B504004FF4805002F03EF90E224FF441
:102720008051200002F06EF910BD10B504000E2299
:102730004FF48051200002F084F920785C2801D108
:10274000012000E00020C0B210BD13B504009DF8C8
:1027500004000A2802DB09208DF80400002002F0A2
:102760001BF90122002101A802F04CF99DF8040098
:10277000002806D09DF80420D2000121200002F09C
:1027800041F913BD38B504000D0000208DF800009C
:1027900001220021684602F054F99DF80000FF284C
:1027A00008D09DF80000002804D09DF80000EDB28C
:1027B000854201D2002008E09DF80020D2000121CE
:1027C000200002F03EF99DF8000032BD80B50020E7
:1027D00002F0E2F84FF4805002F0DEF801BDF0B4F0
:1027E0000246106895681318506803EB5004C00740
:1027F00048BF4D44A3422DD013F8016B16F00300DF
:1028000004BF13F8010BC01C31090F2907D113F8BD
:10281000011B0F3103E013F8017B05F8017B401E1B
:10282000F9D10029E6D013F8010BC6F38106032E77
:1028300008BF13F8016B00EB062040422844002635
:10284000B71E8F421EBF10F8017B05F8017B761C76
:10285000F6D1CFE7F0BC02F10C0070470EB4C0B562
:10286000024603A800210190009101AB0121044818
:1028700078440C3002F00FF906BC5DF810FB00BF85
:10288000B5120100DFF80C17C0B20860704710B530
:102890000100DFF8F006007800280CD10820DFF8EE
:1028A000E8261060C9B2012003F0B4FA0820DFF86E
:1028B000E816086019E0DFF8D4060822026010224A
:1028C000DFF8C4361A60DFF8C8460422226002220C
:1028D00002600800C0B2FFF7D5FF02202060082088
:1028E00020601020DFF8B016086010BD10B50100A0
:1028F000DFF890060078002804D1C9B2012003F067
:1029000089FA11E0DFF8840608220260DFF88046C9
:1029100004222260022202600800C0B2FFF7B2FF68
:10292000022020600820206010BDF8B504000D00D2
:10293000DFF850060078002805D12A002100012088
:1029400003F0BDFA16E0DFF8446608203060DFF8D7
:1029500040760420386007E0022030602078FFF7DE
:1029600091FF02203860641C2800451E0028F3D126
:1029700008203860F1BD70B50400DFF80806007863
:10298000002805D1210089B2012003F0F3FA1BE0F1
:10299000DFF8F86508203060DFF8F455042028607F
:1029A00002203060200080B2000AC0B2FFF76AFF48
:1029B00002202860022030602000C0B2FFF762FFD2
:1029C000022028600820286070BDF8B504000D00C2
:1029D000DFF8B0050078002805D12A002100012089
:1029E00003F01DFB21E0DFF8A46508203060DFF86C
:1029F000A0750420386012E002203060208880B288
:102A0000000AC0B2FFF73EFF0220386002203060AB
:102A10002088C0B2FFF736FF02203860A41C2800CF
:102A2000451E0028E8D108203860F1BD2DE9F047A7
:102A3000060015001F00DFF864853000B8F800209C
:102A400080B2904201D2012000E000200C00DFF8AB
:102A5000509540F249124946C0B203F043FEDFF8F8
:102A600044A52000BAF8001080B2884201D20120AB
:102A700000E000204FF4A5724946C0B203F032FED8
:102A80002800B8F8001080B2884201D2012000E08E
:102A9000002040F24B124946C0B203F023FE38003A
:102AA000BAF8001080B2884201D2012000E0002074
:102AB0004FF4A6724946C0B203F014FE2A20FFF775
:102AC000E6FE300080B2FFF756FF280080B2FFF725
:102AD00052FF2B20FFF7DBFE200080B2FFF74BFFF9
:102AE000380080B2FFF747FF2C20FFF7D0FEBDE88B
:102AF000F08700B585B0684603F022FE0120ADF8EE
:102B00000000DFF898040088ADF80200DFF89404B4
:102B10000088ADF80400DFF894040078002803D0A2
:102B200002280FD007D30DE006208DF806000820FC
:102B30008DF8070006E008208DF8060010208DF8BB
:102B40000700FFE70FF2913003900FF2110004909D
:102B5000684603F005FE05B000BD00002DE9F04118
:102B6000DFF838542888400003F04EFE04000020AF
:102B70000020DFF810643078002803D10820DFF847
:102B80000C140860DFF81C743888431E9BB2288838
:102B9000421E92B200210020FFF748FF002007E00C
:102BA000DFF804140988020092B224F81210401CC5
:102BB00001002A8889B29142F2D35FF0000805E053
:102BC00029882000FFF701FF18F1010840463988E5
:102BD00080B28842F4D33078002803D10820DFF88F
:102BE000B0130860200003F018FEBDE8F0812DE965
:102BF000F0410500DFF8A4633088400003F004FED4
:102C0000040000200020DFF87C733878002803D10E
:102C10000820DFF878130860DFF88883B8F8000030
:102C2000431E9BB23088421E92B200210020FFF763
:102C3000FDFE002004E0010089B224F81150401C80
:102C40000100328889B29142F5D3002504E0318831
:102C50002000FFF7BAFE6D1C2800B8F8001080B203
:102C60008842F4D33878002803D10820DFF82013F5
:102C70000860200003F0D1FDBDE8F081DFF83013DB
:102C8000087008780028012803D9801E01280AD975
:102C900012E0F020DFF8041308804FF4A070DFF892
:102CA0000413088008E04FF4A070DFF8F0120880E9
:102CB000F020DFF8F01208807047DFF8F01208709B
:102CC0007047DFF8F0221080DFF8DC0201807047E7
:102CD000F8B5D8B005000E0014002800DFF8BC12CB
:102CE000098880B2884201D2012000E00020DFF88C
:102CF000B07240F25D223900C0B203F0F3FC300044
:102D0000DFF8A012098880B2884201D2012000E0D9
:102D1000002040F25E223900C0B203F0E3FC002044
:102D20000020DFF860723878002803D10820DFF82F
:102D30005C120860DFF874020078002804D00228D2
:102D400000F0C18047D3BEE0F31D9BB26A1D92B272
:102D5000310089B2280080B2FFF768FE002000E051
:102D6000401C0100C9B2062930DA0621DFF8EC2444
:102D70002300DBB24B431A440300DBB21A4412F8BF
:102D8000C02C00230CE040AD1E00F6B24E4356FAB4
:102D900080F6DFF814C2BCF800C025F816C011E0B8
:102DA0001D00EDB2082DDBDAD507ECD540AD1E00D5
:102DB000F6B24E4356FA80F6DFF8F8C1BCF800C010
:102DC00025F816C0D2B252085B1CE9E7302140A8B2
:102DD000FFF7FBFD77E016F10F039BB2EA1D92B2FD
:102DE000310089B2280080B2FFF720FE002000E009
:102DF000401C0100C9B2082960DADFF86424210010
:102E0000C9B2090111440300DBB21944B1F50071E4
:102E100009782300DBB21B011A440300DBB21A4419
:102E2000B2F5FC72127800231DE06D461E00F6B26A
:102E3000F60056FA80F6DFF870C1BCF800C025F83D
:102E400016C00DE0CD07F0D56D461E00F6B2F600B7
:102E500056FA80F6DFF85CC1BCF800C025F816C051
:102E6000C9B249085B1C1D00EDB2082DEADB002148
:102E70000DE06B460D00EDB2ED0055FA80F503EB69
:102E80004503DFF824512D88A3F8805012E00B0091
:102E9000DBB2082BACDAD307EBD56B460D00EDB2F5
:102EA000ED0055FA80F503EB4503DFF808512D8856
:102EB000A3F88050D2B25208491CE8E78021684646
:102EC000FFF783FDFFE73878002802D1082030495A
:102ED000086059B0F0BD0000F8B504000E00150000
:102EE0002000DFF8B810098880B2884201D20120A2
:102EF00000E00020DFF8A87040F2BA223900C0B22A
:102F000003F0F0FB3000DFF89C10098880B28842A3
:102F100001D2012000E0002040F2BB223900C0B203
:102F200003F0E0FB00270EE00CE0380080B22A5CE2
:102F3000310089B2380080B2C00010FA84F080B24B
:102F4000FFF7C6FE7F1C380080B2285C002817D02F
:102F5000DFF810030078002803D00228E4D0E4D37F
:102F6000F0E7380080B22A5C310089B23B009BB2A6
:102F70000620434313FA84F080B2FFF7A9FEE1E78D
:102F8000F1BD0000D4150228040B31400406314085
:102F90000806314080063140080B3140AC0702285A
:102FA000082F0910AE070228B2070228C907022815
:102FB000D5150228B00702282DE9F84F07001600A2
:102FC0009846DFF8F45538002A8880B2904201D242
:102FD000012000E000200C00DFF8E09540F2D33241
:102FE0004946C0B203F07EFB2000DFF8C81509880F
:102FF00080B2884201D2012000E0002000964FF408
:1030000075724946C0B203F06DFB0098002801D0EC
:10301000012000E0002040F2D5324946C0B203F062
:1030200061FB002000202888400003F0EDFB814672
:10303000DFF88CA59AF80000002803D10820DFF8FB
:10304000841508600C9D0B9E2819431E9BB2F01935
:10305000421E92B2210089B2380080B2FFF7E6FC2E
:103060005FF0000B0A9C0D9F22E0310089B24846B8
:10307000FFF7ABFC1AE0424692B202FB01F23300CA
:103080009BB2B2FBF3F230F8122029F81120491C50
:10309000320092B29142EED33800C0B20028E4D0A0
:1030A000310089B249004846FFF73FFC1BF1010B94
:1030B000280080B283450FD2200080B200FB0BF0C5
:1030C000290089B2B0FBF1F1404680B2414300983B
:1030D00000EB41000021DBE79AF80000002803D153
:1030E0000820DFF8E4140860484603F096FBBDE8CA
:1030F000F18F2DE9FE4F04000D00170098462000C7
:10310000DFF8B414098880B2884201D2012000E0BF
:103110000020DFF8A86440F23A423100C0B203F068
:10312000E1FA2800DFF88C14098880B2884201D2C5
:10313000012000E00020CDF8048040F23B42310045
:10314000C0B203F0CFFA0198002801D0012000E0BE
:1031500000208DF8007040F23C423100C0B203F014
:10316000C1FA00200020002000200020002001984B
:103170009DF80060F6B2F608DFF84474387800284D
:1031800003D10820DFF83C1408609DF8000055FAD0
:1031900080F0431E9BB29DF830009DF8001001FBAB
:1031A0000040421E92B2290089B2200080B2FFF78F
:1031B0003DFC00250D9C00E06D1C9DF80000854243
:1031C00043DA9DF8308001983100C9B201FB05F166
:1031D00000EB01090BE03000C0B2404209EB0001F6
:1031E0003200D2B29DF80000424301EB0209404692
:1031F000B0F10108C0B20028DED05FF0000A03E0A1
:1032000019F101091AF1010A3000C0B28245E2DA6F
:103210005FF0080B05E0DFF8B4030088FFF7ABFBB5
:1032200010E0BBF1010FEBDB99F800001BF1FF018F
:10323000084110F00100C0B20028ECD0200080B29C
:10324000FFF799FBBBF1010BEBE73878002802D1BF
:103250000820DD490860BDE8F78F0000D42309107D
:10326000800F0910C9070228FEB5C0B2002830D16E
:103270000020D3490870D74CB4202070D64D582078
:103280002870D64E632030700820029004200190F0
:10329000012000900123D24A0021012002F026FFE4
:1032A000032300220121B32003F04AFB0323002261
:1032B0000121207803F044FB03230122012130780F
:1032C00003F03EFB032301220121287803F038FBA1
:1032D0005FE00120BA490870BE48B3210170BE4CBE
:1032E00058212170BD4D6321297003230022012143
:1032F000007803F025FB032300220121207803F04E
:103300001FFB032301220121287803F019FB03236B
:1033100000220121622003F013FB0323002201217C
:10332000612003F00DFB032301220121B42003F0EF
:1033300007FB032301220121682003F001FB032383
:1033400001220121692003F0FBFA0323012201215C
:103350006A2003F0F5FA0323012201216B2003F018
:10336000EFFA0323012201216C2003F0E9FA032381
:10337000012201216D2003F0E3FA03230122012140
:103380006E2003F0DDFA0323012201216F2003F0F8
:10339000D7FA944C2078FFF771FC8C4801888C4850
:1033A0000088FFF78EFC904D01268B48017811F0C4
:1033B000070116FA01F10078C01015EBC01001608A
:1033C000844F387810F0070016FA00F03978C910E9
:1033D000864A12EBC1121060052003F0A9FB387871
:1033E00010F0070086403878C01015EBC0152E602D
:1033F000782003F09DFB724D2878002802D1082028
:10340000704908601120FFF742FA782003F090FB22
:103410003620FFF73CFA2078002805D002280BD090
:1034200006D303280CD00EE00020FFF75FFA0AE075
:10343000C020FFF75BFA06E07020FFF757FA02E0C2
:10344000A020FFF753FA3A20FFF721FA0520FFF7F3
:103450004DFAB220FFF71BFA0C20FFF747FA0C20B9
:10346000FFF744FA0020FFF741FA3320FFF73EFA56
:103470003320FFF73BFAB720FFF709FA3520FFF7B3
:1034800035FABB20FFF703FA2920FFF72FFAC220F5
:10349000FFF7FDF90120FFF729FAC320FFF7F7F93D
:1034A0001920FFF723FAC420FFF7F1F92020FFF7D6
:1034B0001DFAC520FFF7EBF91A20FFF717FAC6200F
:1034C000FFF7E5F91F20FFF711FAD020FFF7DFF92A
:1034D000A420FFF70BFAA120FFF708FAE020FFF77E
:1034E000D6F9D020FFF702FA0820FFF7FFF90E20E7
:1034F000FFF7FCF90920FFF7F9F90920FFF7F6F9C2
:103500000520FFF7F3F93120FFF7F0F93320FFF73B
:10351000EDF94820FFF7EAF91720FFF7E7F9142043
:10352000FFF7E4F91520FFF7E1F93120FFF7DEF9A5
:103530003420FFF7DBF9E120FFF7A9F9D020FFF7EE
:10354000D5F90820FFF7D2F90E20FFF7CFF90920AF
:10355000FFF7CCF90920FFF7C9F91520FFF7C6F9E5
:103560003120FFF7C3F93320FFF7C0F94820FFF7F8
:10357000BDF91720FFF7BAF91420FFF7B7F91520A6
:10358000FFF7B4F93120FFF7B1F93420FFF7AEF9B6
:103590002120FFF77CF92920FFF779F92878002806
:1035A00002D1082008490860FFF7D8FAFFF7A1FA0E
:1035B000F7BD0000AE070228AC070228082F09104B
:1035C000D41502280406314008063140B20702280B
:1035D000B0070228CA070228CB070228CC07022816
:1035E00080C3C901D51502280800314004003140CC
:1035F0002DE9FC4104000D001600984600271EE04E
:1036000030683900C9B2405C6A2817DA404680B297
:103610000190012000900D4831683A00D2B2895CD7
:10362000490100EB01031022290089B23800C0B221
:10363000000110FA84F080B2FFF75BFD7F1C3800B8
:103640003179C0B28842DBD3BDE8F3813CF8081081
:1036500010B5002000241FE000212200D2B28154C6
:1036600013E039482100C9B2415C0229F4D037493E
:103670002200D2B251F822100A3940F2DE329142D1
:10368000EAD201212200D2B2815400202F49220027
:10369000D2B241F82200641C2000C0B2052823DA0F
:1036A0002B482100C9B2405C03F002F90128D8D0B0
:1036B00026482100C9B250F82110491C2200D2B27C
:1036C00040F822104FF47A71224A1268B1FBF2F1ED
:1036D0002200D2B250F822008842DCD302201A49DC
:1036E0002200D2B28854D6E710BD1749C0B2085C98
:1036F00070470021144AC0B21154704770B50400DD
:10370000002C01D0012000E000208C221249C0B220
:1037100002F0E8FF002000250EE001230122002135
:103720000B482E00F6B2805D03F00AF9002006492E
:103730002A00D2B288546D1C2800C0B20528ECDBE8
:103740000448046070BD000098140228E4130228A5
:103750001C3D0910741502283431091000EE100ABE
:10376000B8EEC00ADFED4D0A80EE200ADFED4C0A0C
:1037700020EE200ADFED4B0A20EE200ADFEDBC0A26
:1037800020EE200A7047DFF8A0190A690168521A72
:1037900000EE102ADFF894190A694168521A00EE07
:1037A000902ADFF88C190A698168521A01EE102AF2
:1037B000DFF8BC1A0969C068091A01EE901AB8EE60
:1037C000C00AB0EEC00AF8EEE00AF0EEE00AB8EE89
:1037D000C11AB0EEC11A30EE200A30EE010AF8EE3E
:1037E000E10AF0EEE00A30EE200AF5EE000A20EEE3
:1037F000200ABDEEC00A10EE100A7047DFED9B0AEA
:10380000DFF8D829127800EE102AB8EE400A20EE30
:10381000200ADFF8602A127801EE102AB8EE411A69
:1038200061EE200A90ED001AB4EE410AF1EE10FAB2
:1038300001D580ED000A90ED001AF1EE401AB4EEC9
:10384000611AF1EE10FA03D5B1EE400A80ED000ADC
:1038500091ED000AF4EE400AF1EE10FA01D5C1ED47
:10386000000A91ED000AB1EE601AB4EE410AF1EEE1
:1038700010FA03D5B1EE600A81ED000A704780B5F9
:1038800003F0BFFADFF85809DFF8581902680A6038
:10389000DFF854190068086001BD00000000804591
:1038A000B76DDB3EC67D743E10B5DFF8400990ED84
:1038B000000ADFF83449DFED6F0A94ED001A00EEDC
:1038C000201A84ED001ADFF8B0090178491C017054
:1038D00001780229C0F299800021017003F091FA69
:1038E000DFF8FC0890ED000ADFF89019087800284E
:1038F00003D184ED000A01200870DFF88409D0EDBF
:10390000000AF5EE400AF1EE10FA36DBD0ED000ABF
:1039100070EE600A03E09FED921A70EE810A9FED4F
:10392000911AF4EE410AF1EE10FAF4DA9FED8E1AD4
:10393000F4EE410AF1EE10FA04D59FED8C1A70EE08
:10394000810AF3E7F0EEE00A9FED891AF4EE410AEE
:10395000F1EE10FA0DDBDFF82C190A78032A05DAEC
:103960000A78521C0A7090ED000A06E000220A70E4
:1039700003E00021DFF80C29117080ED000AD4ED7E
:10398000000A30EE600A03E0DFED750A30EE200A2F
:10399000DFED740AB4EE600AF1EE10FAF4DADFED4E
:1039A000720AB4EE600AF1EE10FA04D5DFED6F0A88
:1039B00030EE200AF3E7DFED6F0A94ED001A00EE17
:1039C000201A84ED001A07E094ED000ADFED640A86
:1039D00030EE200A84ED000A94ED000ADFED660A5D
:1039E000B4EE600AF1EE10FAEEDA94ED000AB5EEEC
:1039F000400AF1EE10FA08D594ED000ADFED5B0AFB
:103A000030EE200A84ED000AEFE7DFF87C0894ED41
:103A1000000ADFF8D017D1ED000A30EE600A80ED21
:103A2000000A07E090ED000ADFED4D0A30EE200AB3
:103A300080ED000A90ED000ADFED4A0AB4EE600A5C
:103A4000F1EE10FAEEDA90ED000ADFED470AB4EE7F
:103A5000600AF1EE10FA08D590ED000ADFED430A96
:103A600030EE200A80ED000AEDE710BDCDCC4C3DD4
:103A70009A9989400AD7233C80B52DED048BDFF855
:103A8000A80690ED020ADFF8A406D0ED020ADFF8DE
:103A9000A00690ED021ADFF8D807D0ED021AB5EEB5
:103AA000002A70EE202A72EE812A72EEA12A22EEFE
:103AB000829A30EE600A30EE410A30EE210A20EEA2
:103AC000028AB0EEC90ABDEEC00A10EE100AFFF776
:103AD00045FEF0EE408AB5EE409AF1EE10FA01D5BF
:103AE000F1EE688AB0EEC80ABDEEC00A10EE100A08
:103AF000FFF734FEB0EE409AB5EE408AF1EE10FAD0
:103B000001D5B1EE499ADFF8800790ED000ADFEDAC
:103B10009C0A20EE208AB0EE480A03F009FBF0EE82
:103B2000409AB0EE480A03F005FBDFF8700768EE34
:103B3000A90A49EE400A90ED001A70EE810AC0ED24
:103B4000000ADFF8640C28EE800A09EE290AD0ED9D
:103B5000000A30EE200A80ED000ABDEC048B01BDA6
:103B60000000B4C301003443000034C30000B44378
:103B70000100A0410AD7A33C0100B4432DE9F04164
:103B80002DED028B82B0002417E0DFF8180700EB60
:103B9000C40191ED010AB7EEC00A8DED000B00EBF8
:103BA000C40090ED000AB7EEC00A53EC102B611C64
:103BB000DFF8F406FEF752FE641CDFF8F016087812
:103BC0008442E2DB00200CE0DFF8E42602EBC002D6
:103BD000DFF8D03603EBC00393EC020A82EC020A52
:103BE000401C0A789042EFDBDFF8C8060078002816
:103BF00039D0DFF8BC06DFF8C026B2F9002000EEAD
:103C0000102AB8EEC00ADFED7B0A20EE200A0A78FF
:103C100000EBC20282ED000A0A7800EBC202DFF874
:103C20009C36B3F9003000EE103AB8EEC00ADFED72
:103C3000720A20EE200A82ED010A0A7800EBC20225
:103C400092ED010AB7EEC00A8DED000B097800EB8A
:103C5000C10090ED000AB7EEC00A53EC102BDFF85C
:103C60006006FEF7FBFDDFF85C462178DFF85806BA
:103C7000FEF7F4FD002516E0DFF8340600EBC50181
:103C800091ED010AB7EEC00A8DED000B00EBC50007
:103C900090ED000AB7EEC00A53EC102BDFF82C06AB
:103CA000FEF7DCFD6D1C20788542E5DB7DA0FEF78C
:103CB000D5FDDFF81C0690EC020A002558E0DFF87D
:103CC000F06506EBC50090ED001A31EE408A06EB78
:103CD000C50090ED011A71EE608ADFF8F87528EEE4
:103CE000080A08EEA80A03F027FA07EB850080ED22
:103CF000000ADFF8E485F0EE480AB0EE680A03F047
:103D00002BFADFED980A20EE200A08EB850080ED03
:103D1000000A08EB850090ED000AB5EE400AF1EECE
:103D200010FA0BD508EB850090ED000ADFED8E0A46
:103D300030EE200A08EB850080ED000A08EB8500D4
:103D400090ED000AB7EEC00A8DED000B07EB850081
:103D500090ED000AB7EEC00A53EC102B2900DFF8F3
:103D6000540AFEF77BFD06EBC50090EC020A6D1CC1
:103D700020788542A3DB02B0BDEC028BBDE8F08168
:103D800035FA8E3C80B5002003F082FC0021DFF87C
:103D90004C0503F08AFE0021DFF8440503F085FEA0
:103DA0000020DFF8F4140870DFF838050021016006
:103DB000DFF83405002101600E232B220021DA48B0
:103DC00003F000FC0D232A220021D84803F0FAFB5F
:103DD000212352220021D64803F0F4FB2223532250
:103DE0000021DFF88C0403F0EDFBDFF8CC09FEF7CF
:103DF00035FD01BD0AD7233C0AD723BCF8B5002006
:103E000003F046FC0021DFF8D40403F04EFE00214D
:103E1000DFF8CC0403F049FE0020DFF87C140870C2
:103E2000C14F0E232B220021380003F0CBFBBF4CE7
:103E30000D232A220021200003F0C4FBBC4D2123C6
:103E400052220021280003F0BDFBDFF82464222366
:103E500053220021300003F0B5FBDFF838040021C5
:103E6000016000214160DFF854093969016021696E
:103E70004160296981603169C160DFF84409DFF878
:103E800008140968016090ED000AB7EEC00A53EC0F
:103E9000102BDFF8FC030178491CDFF82809FEF736
:103EA000DDFCF1BD0A00000038B52DED028B84B0B9
:103EB000DFF8DC432078DFF8F413097888424DD22C
:103EC000DFF8F808FFF75FFCFFF748FCB0EE408A28
:103ED000DFF8EC0890ED000ADFED900A60EE208A32
:103EE000DFF8B053B0EE680A03F022F9D5ED000A0E
:103EF00040EE080AC5ED000AB0EE680A03F01AF9B0
:103F0000D5ED010A40EE080AC5ED010ADFF8940379
:103F1000217800EBC10195EC020A81EC020A2178BC
:103F200000EBC10191ED010AB7EEC00A8DED020B65
:103F3000217800EBC10090ED000AB7EEC00A8DEDCC
:103F4000000BB7EEC80A53EC102B2178491CDFF8A0
:103F50007808FEF783FC2078401C207004B0BDEC8C
:103F6000028B31BDE02E65420000B4431CB5040055
:103F70002000CE4B1B78C0B2984241D2C94809B24A
:103F800000EE101AB8EEC00ADFED650A20EE200A36
:103F90002100C9B200EBC10181ED000A12B200EEAE
:103FA000102AB8EEC00ADFED5F0A20EE200A2100D9
:103FB000C9B200EBC10181ED010A2100C9B200EBD9
:103FC000C10191ED010AB7EEC00A8DED000B210091
:103FD000C9B200EBC10090ED000AB7EEC00A53EC85
:103FE000102B2100C9B2491CDFF8E007FEF736FCB0
:103FF000A74821000278C9B2914201D3641C047021
:1040000013BD80B500F005F8FFF7B8FD01BDA54868
:104010007047DFF8BC0701780A2901DB092101702C
:10402000A24900780870A3480078002801D0012038
:1040300000E00020DFF89C27097840181070107805
:104040000B2801DB0A201070704738B592B00921A7
:104050006846FEF797FB0500FFF7DBFF8C4C00205E
:104060002070002011E08F490200D2B201EBC201A2
:104070006A460300DBB202EBC30292EC020A81EC57
:10408000020A2178491C2170401C01002A00C9B293
:10409000D2B2914205D20100844A1278C9B291424B
:1040A000E1D37C4800210160002141602078002894
:1040B00003D180480078002801D0FFF75FFD8148D8
:1040C00003787A4802782178DFF80C07FEF7C6FB00
:1040D00013B030BD80B500206D4908706D480021D7
:1040E0000160002141600020684908700020DFF86D
:1040F000EC160870002068490870DFF8E406FEF747
:10410000ADFB01BD6248007868490978884201D357
:10411000012000E00020C0B27047000035FA8E3C5C
:104120000AD7233C0AD723BC280F0228800F022875
:10413000D80F022810B5FFF7E5FF002809D15B482A
:10414000027853480178DFF89C06FEF787FB0020D1
:1041500042E00120DFF890160870DFF89006D0E901
:104160000001DFF88C26C2E90001DFF88806FEF7BF
:1041700075FBDFF88406002101605A4800210160C8
:10418000594800210160012003F082FA534C2000BD
:1041900003F054FD0121200003F087FC504C200067
:1041A00003F04CFD0121200003F07FFC3B4800217F
:1041B00001603B48002101600020DFF8E81508702D
:1041C0000020354908700020DFF81016087003F051
:1041D000ECFEFFF754FB012010BD0000BC070228D5
:1041E0004C150228F0140228F4140228181502288D
:1041F00080B5002003F04CFA0021384803F055FC4C
:104200000021374803F051FC364800210160364850
:10421000002101600020204908700020DFF8BC1553
:1042200008700E232B220021DFF8D00503F0CAF915
:104230000D232A220021DFF8C80503F0C3F921234A
:1042400052220021DFF8BC0503F0BCF922235322DF
:104250000021074803F0B6F9032003F0DBFF01203B
:10426000DFF8A4150870DFF8A405FEF7F7FA01BD22
:1042700030100228BD070228C7150228C6150228DB
:10428000F0060228C8150228EC140228C1150228DD
:10429000BF15022868140228C2150228E414022857
:1042A000E8140228D8100228BC3A0910C5070228D1
:1042B00088100228B90702288E15022890150228B6
:1042C000AC390910C6070228703B0910803B091061
:1042D000143D0910E812022810130228A811022820
:1042E000E8110228F8140228FC140228F8B52DED74
:1042F000048B84B0DFF810050078002840F04C8271
:10430000DFF80C452088002802D02088401E20803D
:10431000DFF8D4040078002800F08780DFF8CC04B0
:10432000D0E90001DFF8C824D2E90023801A9941BE
:10433000DFF8E0240023994277D301D8904274D368
:10434000DFF8D40400780A286FDBDFF8905428786F
:1043500000286AD12088002867D19FED978A00261F
:1043600036E0DFF84414DFF8B424DFF8B40400EBDF
:10437000C60393ED000AD2ED000A30EE600A00EBAE
:10438000C603D3ED000A92ED001A70EEC10A20EECA
:10439000200A00EBC602D2ED010A91ED001A70EE80
:1043A000C10A00EBC60090ED011AD1ED001A31EE02
:1043B000611A00EE810A02F0BFFEB4EE480AF1EE87
:1043C00010FA04D5B0EE408ADFF858040670761C67
:1043D000DFF8000400788642C3DB00200021DFF80C
:1043E0004824C2E9000101202870DFF83814DFF802
:1043F0003004B7EEC80A8DED020B0A7800EBC2025A
:1044000092ED010AB7EEC00A8DED000B0A7800EBC1
:10441000C20090ED000AB7EEC00A53EC102B0978E9
:10442000491CDFF80804FEF719FADFF8B00300783A
:10443000002800F09D80DFF8EC43DFF8E4032178EA
:1044400000EBC10090ED000ADFF8D013D1ED000AB7
:1044500030EE608A90ED010ADFF84C03D0ED000ADF
:1044600070EE608A28EE080A08EEA80A02F064FEE0
:10447000DFED520AB4EE600AF1EE10FA11D4B0EE9C
:10448000C80ADFED4F0AB4EE600AF1EE10FA55D516
:10449000B0EEE80ADFEDC20AB4EE600AF1EE10FAFF
:1044A0004CD5DFF88C0300210160DFF88803002180
:1044B0000160DFF88403002101600020DFF87C1335
:1044C0000870DFF87C0300210160DFF87803002129
:1044D0000160DFF85453D5E9000100290CD1002810
:1044E0000AD1C248D0E90001C5E900012178491C80
:1044F000DFF85403FEF7B2F9BC48D0E90001D5E972
:104500000023801A9941DFF844230023994214D3F1
:1045100001D8904211D32078401CAE49097890FB15
:10452000F1F201FB1200207000200021C5E900011A
:104530002178491CC648FEF791F92DE100200021A1
:10454000B94AC2E900018DED038ACDED028A02A9C4
:1045500003A8FFF753F9B64803990160B5480299DB
:104560000160B548002101600120B449087013E1E1
:10457000B84DD5E90001002901D1002859D09B4848
:10458000D0E90001D5E90023801A9941AF4A002300
:10459000994203D801D3904200D2FDE000200021CF
:1045A000C5E90001AC49087800280BD1AB480022CE
:1045B0000260002242600FE0286B6E4E90C2F53C14
:1045C0000AD7A33C96480A7800EBC200083890EC62
:1045D000020AA24880EC020A7848884A12690260FE
:1045E000874A12694260874A126982609C4A12694E
:1045F000C2609C480022026001209B4A107050203B
:1046000020809A480A7800EB820090ED000AB7EE0D
:10461000C00A8DED000B96480A7800EB820090ED01
:10462000000AB7EEC00A53EC102B09789148FEF748
:1046300015F991480078032840F0AE805F48FFF7F5
:10464000A2F8FFF78BF8B0EE409A834E8748317896
:1046500000EB810090ED000ADFED540A60EE209A35
:104660007E4FB0EE690A02F063FDD7ED000A40EE1E
:10467000090AB0EE608AB0EE690A02F05BFDD7ED80
:10468000010A40EE090AF0EE608A6548317800EBD5
:10469000C10090ED000A30EE489A90ED010A70EEEC
:1046A000689A29EE090A09EEA90A02F045FDDFED34
:1046B000400AB4EE600AF1EE10FA59D5B7EEE81AE6
:1046C0008DED021BF0EE480AB7EEE01A8DED001BEF
:1046D000B7EEC00A53EC102B31786848FEF7BEF8ED
:1046E0003078401C307030783A490978884222D3BB
:1046F0000020307000203860002078603B48D0E90E
:104700000001C5E900014A48002101604948002133
:10471000016049480021016000204849087048486C
:10472000002101604748002101605020208054484A
:10473000FEF794F830E02D48D0E90001C5E900010A
:104740003B48002101603B48002101603A480021BC
:10475000016000203949087039480021016039485A
:10476000002101603178491E4648FEF777F813E0D2
:104770008DED019ACDED009A694601A8FFF73EF84C
:104780002B48019901602B48009901602A480021BB
:10479000016001202949087004B0BDEC048BF1BD13
:1047A0009A99193EC3150228E814022835FA8E3C5E
:1047B0000BD7A33CC83909101C360910F81302287E
:1047C000D014022880370910B8360910E4390910CE
:1047D000B6070228C607022830350910C515022879
:1047E0004C3B091060350910C915022860140228D5
:1047F000881402289035091000150228280F022875
:10480000800F0228D80F0228BC150228E0360910B4
:1048100094150228E0673500BB150228E41402282D
:1048200088100228C4150228801402284C3409106C
:10483000D8140228DC140228E0140228C215022829
:10484000F8140228FC140228A437091080841E00E2
:10485000C837091078140228C015022870140228DD
:1048600030100228D4140228C70702281013022887
:10487000E812022808370910C1150228C0350910AE
:10488000EC370910103809102020314908607047B2
:10489000202030490860704780B50100C9B22E4819
:1048A00003F0CAFD01BD80B52B4803F0CAFD02BD6F
:1048B00010B504002000000CC0B2FFF7EDFF20008F
:1048C000000AC0B2FFF7E8FF2000C0B2FFF7E4FF24
:1048D00010BD80B5FFF7D8FF0620FFF7DDFFFFF71B
:1048E000D7FF01BD10B5FFF7CFFF0520FFF7D4FFBD
:1048F000FFF7D9FF0400FFF7CBFF2000C0B210BDC7
:1049000080B5FFF7EFFFC007FBD401BD1FB54FF621
:10491000FF70029034200190332000903223052252
:1049200003210D4803F092FD0323012201213520CC
:1049300002F006F8094C00F015F8206020680849DC
:10494000401A042801D8002000E0012004B010BD66
:10495000040331400803314040140228681502283E
:104960001440EF0070B5FFF78FFF9F20FFF794FF13
:10497000FFF799FF0400FFF796FF0500FFF793FF8D
:104980000600FFF785FFE4B2EDB22D0255EA0445BB
:10499000F6B23543280070BD10B50400FFF799FF4B
:1049A000FFF772FF2020FFF777FF2000FFF780FF5F
:1049B000FFF76EFFFFF7A4FF10BD70B504000D00F8
:1049C0001600300080B240F20111884201DB4FF442
:1049D0008076FFF77EFFFFF757FF0220FFF75CFFAF
:1049E0002800FFF765FF03E02078FFF755FF641C00
:1049F0003000461E80B20028F6D1FFF749FFFFF7CE
:104A00007FFF70BDF8B505000E00140016E008E049
:104A100016F0FF07D7F58077380080B28442F6D2CF
:104A200027003A0092B231002800FFF7C6FF380095
:104A300080B2054416FA87F6BFB2E41B002CE7D11A
:104A4000F1BD70B504000D001600FFF71DFF032037
:104A5000FFF722FF2800FFF72BFF03E0FFF723FFFC
:104A60002070641C3000461E0028F7D1FFF710FFAD
:104A700070BD03681AB95A1E02600846704719785B
:104A800011B94FF0FF307047591C0160187870471A
:104A900040F0200070472DE9F14FB0B092460491EC
:104AA0000DF142013A9A2B9199464A7000200AE092
:104AB0001AF8011B0498309A90470028049000F0DF
:104AC00034860D98401C0D909AF8000050B12528AE
:104AD000EED1002100220791089209910A920B91D0
:104AE0000C9204E00D9800F022BE41F001011AF88A
:104AF000010F2028F9D023280CD02B2804D02D28F2
:104B000005D0302809D00BE041F00201EFE741F079
:104B10000401ECE741F00801E9E741F01001E6E7A4
:104B20002A280FD1D9F8002052F8040BC9F8002028
:104B300000280F9003D540420F9041F004010AF184
:104B4000010A14E00F92DFF8EC3B0AE00F9898425C
:104B500005DA00EB800402EB4402303A0F920AF1CE
:104B6000010A9AF80020A2F130000A28EED39AF840
:104B700000002E2803D04FF0FF320E9229E01AF8E1
:104B8000010F2A2809D1D9F8000050F8042BC9F8E0
:104B900000000E920AF1010A1BE02D280CBF0AF159
:104BA000010A002000220E92DFF8884B0BE040B98A
:104BB0000E9AA24205DA02EB820503EB4503303B75
:104BC0000E930AF1010A9AF80030A3F130020A2A82
:104BD000EDD3ADF840100FF660309AF8001003F0F6
:104BE000FBFC08B11AF8010B8DF842009DF8420059
:104BF000682805D19AF8000068280CD1622106E0E7
:104C00006C2804BF9AF800006C2804D171218DF83B
:104C100042100AF1010A12A806901AF801BBBBF172
:104C200025012CD01C3900F09481091F022940F283
:104C30009081133900F0AB84093900F08A81891E14
:104C400000F04085491E00F0ED84491E022940F223
:104C50008081091F00F0E684491F00F0EF80491EA3
:104C600000F09584491E00F0D780C91E0CD0891E23
:104C700000F08D84C91E00F08A8400F02EBD01234F
:104C80000793252100F026BDD9F8000050F8044B09
:104C9000C9F80000002C059440F0AB802B994878AF
:104CA000002800F0A1804FF0FF340FF6942003F0AD
:104CB0009FFC241A40F0398500F01BBD01236A4691
:104CC00002A9304600F000FE002840F02E85641E48
:104CD000F4D13096079C12AF74B1309E17F8011BC7
:104CE0000498B0470028049000F01F850D98401CE0
:104CF000641E0D90F2D130960A9C3021002C8DF864
:104D000000100CDD309E01236A4602A9304600F0F7
:104D1000DBFD002840F00985641EF4D13096059F24
:104D2000089C74B1309E17F8011B0498B047002806
:104D3000049000F0FA840D98401C641E0D90F2D18E
:104D400030960B9C3021002C8DF800100CDD309E2D
:104D500001236A4602A9304600F0B6FD002840F063
:104D6000E484641EF4D1309605980899099C47188C
:104D700074B1309E17F8011B0498B04700280490C6
:104D800000F0D3840D98401C641E0D90F2D1309633
:104D90000C9C3021002C8DF800100CDD309E01237E
:104DA0006A4602A9304600F08FFD002840F0BD841D
:104DB000641EF4D130969DF8400041077FF584AE23
:104DC0002020002D8DF800007FF77EAE309C01235F
:104DD0006A4602A9204600F077FD002840F0A5842D
:104DE0006D1EF4D130946FE60FF63C30059000F064
:104DF00080BC0E9D002D04D5204603F019FC04460E
:104E000007E02A46204603F02FFC002814BF041BAD
:104E10002C46089400F06DBCD9F8001051F8040B32
:104E2000C9F8001020F00004002121F0FF35CDE981
:104E3000024512AB0593782100F040BC2B994878CD
:104E400020B14FF0FF340FF6B02030E79DF842005C
:104E5000622860D0682817D06A283FD06C2806D016
:104E6000712847D074282CD07A281DD062E0D9F858
:104E7000001051F8040BC9F80010002866D14FF05B
:104E8000FF340FF68C2012E7D9F8001051F8040B0C
:104E9000C9F8001020B94FF0FF340FF6742006E770
:104EA0000D99018000F025BCD9F8001051F8040BD1
:104EB000C9F80010002849D14FF0FF340FF65020F8
:104EC000F5E6D9F8001051F8040BC9F800100028D5
:104ED0003CD14FF0FF340FF63820E8E6D9F8001047
:104EE00051F8040BC9F8001080B94FF0FF340FF6E9
:104EF0002020DCE6D9F8001051F8040BC9F80010A6
:104F000020B94FF0FF340FF60820D0E60D9AD317E2
:104F1000C0E90023EDE3D9F8001051F8040BC9F8FB
:104F2000001020B94FF0FF340FF6E410BFE60D99E2
:104F30000170DEE3D9F8001051F8040BC9F8001035
:104F400020B94FF0FF340FF6C810B0E60D9901609C
:104F5000CFE39DF842004C2807BFD9F80010CA1DC6
:104F6000D9F80000C21D22F00702C9F80020D2E9DA
:104F700000010832C9F80020CDE90201C80F02D0B3
:104F800007982D210AE0BDF84000810702D5079857
:104F90002B2103E0C00705D50798202112AA115440
:104FA000401C079012A807994BF0200300EB010C5E
:104FB000DDE90201CDE92C01612BCDF814C021AC53
:104FC0000BD00E98002848BF062105D404BF4BF033
:104FD0002000672801D101210E91DDE902014F0077
:104FE00047EAD0777E15FF174FF0FF32974208BF90
:104FF000964210D1090341EA10510003002908BF6D
:10500000002808D0ABF1610503211A2D089118D3AF
:105010000FF61C1110E0DDE902014A00521512F1F1
:10502000010F11D108030FD1ABF1610503211A2D36
:1050300008911FD30FF600110322604603F040FBD6
:1050400057E30FF6E801F7E7DDE902016A4603F0EE
:1050500097FBCDE902014BF02000612811D10598A2
:1050600030210170821C0592BBF1610F0CBF7821C9
:10507000582102E00FF6BC01DEE741700798801C62
:105080000790DDE9020120F0000231F0004308BF83
:10509000002A02D10026002542E14BF02008B8F199
:1050A000610F40F092800E98002847BF21210191A6
:1050B000401C0190019FDDE92C017F1C0022002390
:1050C000DDE9024503F094FB38BF85F00045009907
:1050D0008DF88420091F002F00910DF1850632DD27
:1050E000204629460022002303F09CFB2BD21C22E1
:1050F00003F0B2FB04460D4603F030FCFF1F002F07
:10510000804609DD03F031FC02460B462046294665
:1051100003F032FC04460D46F01D0721B8F1000FE4
:105120000CDD491E5EBF08F00F0200F8012D4FEAAA
:105130002818F3D502E0002200F8012D491EFAD507
:10514000C61D002FCCDC0DF18500361A01980DF13B
:1051500085048642D8BF304600282FD4B04206DAF4
:105160000DF185010A5C082AA8BF0F2100DA002191
:10517000024621AB134400E0401E13F80159521EB1
:105180008D42F9D00F2904D10DF185018B5C5B1C98
:105190008B54002A04D50099091D21AC401C0091B4
:1051A000411E0BD4621813783033DDB23A2DA4BF00
:1051B0005B443A3B491E02F80139F4D50E990029A7
:1051C00040F1AC80421E0E92A8E00099DFF8E8267C
:1051D00047F29750414391FBF2F20092DDE92C45F2
:1051E000C2F10702002A25F0004504DD20462946C9
:1051F00000F03EFB0BE052420020DFF8C01600F04A
:1052000037FB02460B462046294603F0BEFB044608
:105210000D46B8F1660F06BF009F0A3706270E98A5
:105220003F18142FC8BF142730208DF884000DF1CB
:105230008506002F34DD2046294603F0AFFB0146EA
:105240000A4606F1080304200A26B2FBF6F606EB2E
:10525000860EA2EB4E02303203F8012C0A22B6FB76
:10526000F2F202EB820EA6EB4E063036401E03F839
:10527000026DE9D1083F002F03F10806D9DD084689
:1052800003F093FB02460B462046294603F074FBCD
:105290000022DFF82C3603F08FFB04460D46CAE7E8
:1052A0000DF18500361A0DF1850404E00098401ECA
:1052B000761E0090641C20783028F7D0B8F1660F75
:1052C00002D10098401C04E0B8F1650F0CBF01202A
:1052D00000200E9940188642B8BF701E00281DD4C9
:1052E000B04204DA215C3429C8BF392100DC302106
:1052F0000246631E9D1800E0401E15F80169521E0B
:105300008E42F9D0392902D1A15C491CA154002A4E
:1053100004D50099491C1C46401C00910646009D7E
:105320000E9F30B2002802DC01260FF210644BF011
:105330002000662808BF6D1C15D067280FFA85F875
:1053400041D118F1040F44DBB84542DA9DF8400022
:105350006D1C010703D430B2B842D8BF074628B24B
:105360003F1A48BF00270FFA85F8B8F1000F00F385
:10537000AF800898411C0891302205990A54002FEB
:1053800003DC9DF84000010705D50898411C0891F1
:105390002E2205990A5417EB080FB8BF7D422DB293
:1053A0006842ED1932B20B909542B8BF2E46059B6C
:1053B000089836B2099632462146184403F080F91F
:1053C000AD1B0C95CCE0BBF1610F15D14FF0700B0C
:1053D00017E030B2B84204DA9DF840100A0758BF0F
:1053E00007467F1E48BF0027BBF1670F14BF4FF071
:1053F000450B4FF0650B04E0BBF1410F08BF4FF0C8
:10540000500B0898411C0891002F059914F8012BA6
:105410000A5403DC9DF84000010719D50898411C87
:1054200008912E2205990A54002F11DD761E30B204
:105430008742B8BF3E460598089B32B221461844C1
:1054400003F03EF9089836B23018BF1B08900B974E
:10545000059808990844B8F1000F80F800B003D40B
:105460002B224270821C04E02D2145464170821C93
:105470006D4200212CAB28460AE004460A2094FB2A
:10548000F0F000EB8005A4EB450403F8014B491C48
:1054900000B20028F1DC012906DC4BF02000652871
:1054A00004BF302002F8010B00292CAB08D13020BA
:1054B00002F8010B06E0491E585C303002F8010B7F
:1054C0000029F8DC059908980844121A099247E067
:1054D00030B229B288421BDA0598089B32B22146C5
:1054E000184403F0EDF8089936B271180891A8EB4A
:1054F0000600002F0B9003DC9DF84000020705D545
:10550000059A2E2050540999491C09910C9727E0BF
:105510000598089B2AB22146184403F0D1F8089850
:10552000761B4044002F089003DC9DF840100A07CA
:1055300004D5411C08912E2205990A5430B28742A5
:10554000B8BF3E460598089B32B204EB08011844E8
:1055500003F0B6F8089836B23018BE1B08900B96C8
:105560009DF8400000F01400102840F0C280079A17
:1055700008980B99821809988A1882180C980F9924
:105580008018884280F2B580081A0A90B1E09DF830
:105590004200622808D068280ED06A2814D06C28EF
:1055A0001FD0712810D01CE0D9F8001051F8040B5E
:1055B000C9F80010C0B21AE0D9F8001051F8040B75
:1055C000C9F8001080B212E0D9F80000C21D22F024
:1055D0000702C9F80020D2E900010832C9F800200A
:1055E00006E0D9F8001051F8040BC9F800100021AA
:1055F000CDE902019DF8400001075AD5DDE90223FB
:10560000002B08BF002A54D04BF02000782850D13E
:10561000079812A930220A54401C431C079301F832
:1056200000B046E09DF84200622808D068280ED0FD
:105630006A2814D06C281FD0712810D01CE0D9F82B
:10564000001051F8040BC9F8001040B21AE0D9F864
:10565000001051F8040BC9F8001000B212E0D9F89C
:105660000000C21D22F00702C9F80020D2E90001A3
:105670000832C9F8002006E0D9F8001051F8040BF0
:10568000C9F80010C117CDE90201002902D5079819
:105690002D210AE0BDF84000810702D507982B2193
:1056A00003E0C00705D50798202112AA1154401C19
:1056B000079012A8079901440591594602A800F0E5
:1056C0004DF816E001200790D9F8000050F8041BAF
:1056D000C9F800008DF848100BE001212522BBF12C
:1056E000000F07918DF8482003D0022207928DF811
:1056F00049B00F9D07990A986D1A08992D1A0B98B1
:105700006D1A09992D1A0C986D1A9DF840102D1AD2
:1057100048073FF5DFAA2021002D8DF800107FF704
:10572000D9AA309E2C46FFF7C9BA4FF0FF3031B0EE
:10573000BDE8F08FCBCCCC0C686A6C747A4C00005E
:105740007072696E74665F733A20626164202573BB
:1057500020617267756D656E740000002DE9FC476D
:1057600007468A463C6950466F2808BF082505D081
:10577000FFF78EF9782814BF0A251025D7E9000114
:105780003C2680468946BAF1640F18BFBAF1690F0A
:1057900005D1002903D5D8F1000869EB4909B9F111
:1057A000000F08BFB8F1000F0CD1386B50B9082DAD
:1057B0003AD197F83800010736D530223B2684F8D5
:1057C0003B2031E08DF800A0404649462A46EB17C1
:1057D00003F0FCF83032D0B2761E3A2801960EDA89
:1057E000A255404649462A46EB1703F0EFF880469B
:1057F0005FEA010908BFB8F1000F05D108E09DF884
:1058000000001218513AEBE7F868A1198842DBD37F
:10581000082D09D197F83800010705D5A05D30287B
:1058200002D0761E3020A055C6F13C03BB61A11901
:10583000F960386B834208DAC31A3B624FF6EF70A7
:10584000398F01403987BDE8F38700280ED597F8D6
:10585000380000F01400102808D17A6B7969386A92
:10586000521A121AD21A002AC8BF3A62BDE8F38748
:105870002DE9D04306460F4614464FF00008DFF8E6
:10588000449012E0E00707D542464B463046394681
:1058900003F092F806460F464046494642464B46BC
:1058A00003F08AF8641080468946002CEAD130461D
:1058B0003946BDE8D0830000A08601000000F03F1B
:1058C00084D7974100002440F8B505460E46174698
:1058D0001C4600205CB117F8011BB068A847B060F7
:1058E00030B1F06A401CF0620020641EF3D1F2BDBA
:1058F0004FF0FF30F2BD00007072696E74665F7326
:105900003A20256E20646973616C6C6F7765640062
:105910007072696E74663A2062616420256E20613F
:105920007267756D656E7400000000006E616E0038
:105930004E414E00696E6600494E46003000826856
:10594000521C8260426832B10268531C03601170BD
:105950004168491E41607047C0F840127047D0F856
:105960000802C005C00D7047D0F80802C0F3C0306F
:10597000704738B505002800FFF7F1FF0400280044
:10598000FFF7F2FF0419002C01D1012000E00020F4
:10599000C0B232BD0068C0F38130002801D1802040
:1059A00000E040207047016851F0004101607047FD
:1059B0002030026861F39B6202607047022801D3C5
:1059C000012010E00B00DBB2042B01DB01200AE018
:1059D000DFF8003703EB8000C9B2405C824201D39C
:1059E000012000E000207047F8B504000F0015000A
:1059F0001E00022C01D301202AE02A003900C9B27E
:105A00002000FFF7DBFF012801D1012020E00698EC
:105A10003900C9B202291ED1B6F5803F19D220281B
:105A200017D24FF4C052DFF8B01663030B4403EBF8
:105A3000850313441F6866F317271F60640321441E
:105A400001EB850111440A6860F3C7020A60002077
:105A5000F2BD0120FCE7FFB2032F1FD1B6F1807F1A
:105A60001AD2202818D24FF4E052DFF86C166303E4
:105A70000B4403EB850313441F6807F0FF0757EA45
:105A800006271F606403214401EB850111440A6865
:105A900060F3C7020A60DAE70120D9E70120D7E7FF
:105AA00000B20012C0B27047F8B505000E00170032
:105AB000280000B2FFF7F4FF04002000C0B2022863
:105AC00001D3012024E03A003100C9B22000C0B265
:105AD000FFF774FF012801D1012019E0DFF8F81564
