:020000041008E2
:1000000000000828B5970810599F08109D9C0810FB
:100010005D9F0810619F0810659F08100000000098
:10002000000000000000000000000000899D081092
:10003000699F0810000000006D9F0810719F081054
:100040004F8F0810758F08109B8F0810C18F0810F4
:10005000E78F08100D900810339008105990081081
:10006000759F0810799F08107D9F0810819F0810C8
:10007000859F0810899F08108D9F0810919F081078
:1000800040F0200070472DE9F14FB0B09246049146
:100090000DF142013A9A2B9199464A7000200AE0EC
:1000A0001AF8011B0498309A90470028049000F039
:1000B00034860D98401C0D909AF8000050B1252808
:1000C000EED1002100220791089209910A920B912A
:1000D0000C9204E00D9800F022BE41F001011AF8E4
:1000E000010F2028F9D023280CD02B2804D02D284C
:1000F00005D0302809D00BE041F00201EFE741F0D4
:100100000401ECE741F00801E9E741F01001E6E7FE
:100110002A280FD1D9F8002052F8040BC9F8002082
:1001200000280F9003D540420F9041F004010AF1DE
:10013000010A14E00F92DFF8EC3B0AE00F989842B6
:1001400005DA00EB800402EB4402303A0F920AF128
:10015000010A9AF80020A2F130000A28EED39AF89A
:1001600000002E2803D04FF0FF320E9229E01AF83B
:10017000010F2A2809D1D9F8000050F8042BC9F83A
:1001800000000E920AF1010A1BE02D280CBF0AF1B3
:10019000010A002000220E92DFF8884B0BE040B9E4
:1001A0000E9AA24205DA02EB820503EB4503303BCF
:1001B0000E930AF1010A9AF80030A3F130020A2ADC
:1001C000EDD3ADF840100FF660309AF8001000F053
:1001D000EDFE08B11AF8010B8DF842009DF84200BF
:1001E000682805D19AF8000068280CD1622106E041
:1001F0006C2804BF9AF800006C2804D171218DF896
:1002000042100AF1010A12A806901AF801BBBBF1CC
:1002100025012CD01C3900F09481091F022940F2DD
:100220009081133900F0AB84093900F08A81891E6E
:1002300000F04085491E00F0ED84491E022940F27D
:100240008081091F00F0E684491F00F0EF80491EFD
:1002500000F09584491E00F0D780C91E0CD0891E7D
:1002600000F08D84C91E00F08A8400F02EBD0123A9
:100270000793252100F026BDD9F8000050F8044B63
:10028000C9F80000002C059440F0AB802B99487809
:10029000002800F0A1804FF0FF340FF6942000F00A
:1002A00095FE241A40F0398500F01BBD01236A46F3
:1002B00002A9304600F000FE002840F02E85641EA2
:1002C000F4D13096079C12AF74B1309E17F8011B21
:1002D0000498B0470028049000F01F850D98401C3A
:1002E000641E0D90F2D130960A9C3021002C8DF8BE
:1002F00000100CDD309E01236A4602A9304600F052
:10030000DBFD002840F00985641EF4D13096059F7E
:10031000089C74B1309E17F8011B0498B047002860
:10032000049000F0FA840D98401C641E0D90F2D1E8
:1003300030960B9C3021002C8DF800100CDD309E87
:1003400001236A4602A9304600F0B6FD002840F0BD
:10035000E484641EF4D1309605980899099C4718E6
:1003600074B1309E17F8011B0498B0470028049020
:1003700000F0D3840D98401C641E0D90F2D130968D
:100380000C9C3021002C8DF800100CDD309E0123D8
:100390006A4602A9304600F08FFD002840F0BD8477
:1003A000641EF4D130969DF8400041077FF584AE7D
:1003B0002020002D8DF800007FF77EAE309C0123B9
:1003C0006A4602A9204600F077FD002840F0A58487
:1003D0006D1EF4D130946FE60FF63C30059000F0BE
:1003E00080BC0E9D002D04D5204600F00FFE044673
:1003F00007E02A46204600F025FE002814BF041B13
:100400002C46089400F06DBCD9F8001051F8040B8C
:10041000C9F8001020F00004002121F0FF35CDE9DB
:10042000024512AB0593782100F040BC2B99487827
:1004300020B14FF0FF340FF6B02030E79DF84200B6
:10044000622860D0682817D06A283FD06C2806D070
:10045000712847D074282CD07A281DD062E0D9F8B2
:10046000001051F8040BC9F80010002866D14FF0B5
:10047000FF340FF68C2012E7D9F8001051F8040B66
:10048000C9F8001020B94FF0FF340FF6742006E7CA
:100490000D99018000F025BCD9F8001051F8040B2B
:1004A000C9F80010002849D14FF0FF340FF6502052
:1004B000F5E6D9F8001051F8040BC9F8001000282F
:1004C0003CD14FF0FF340FF63820E8E6D9F80010A1
:1004D00051F8040BC9F8001080B94FF0FF340FF643
:1004E0002020DCE6D9F8001051F8040BC9F8001000
:1004F00020B94FF0FF340FF60820D0E60D9AD3173D
:10050000C0E90023EDE3D9F8001051F8040BC9F855
:10051000001020B94FF0FF340FF6E410BFE60D993C
:100520000170DEE3D9F8001051F8040BC9F800108F
:1005300020B94FF0FF340FF6C810B0E60D990160F6
:10054000CFE39DF842004C2807BFD9F80010CA1D20
:10055000D9F80000C21D22F00702C9F80020D2E934
:1005600000010832C9F80020CDE90201C80F02D00D
:1005700007982D210AE0BDF84000810702D50798B1
:100580002B2103E0C00705D50798202112AA11549A
:10059000401C079012A807994BF0200300EB010CB8
:1005A000DDE90201CDE92C01612BCDF814C021ACAD
:1005B0000BD00E98002848BF062105D404BF4BF08D
:1005C0002000672801D101210E91DDE902014F00D1
:1005D00047EAD0777E15FF174FF0FF32974208BFEA
:1005E000964210D1090341EA10510003002908BFC7
:1005F000002808D0ABF1610503211A2D089118D30A
:100600000FF61C1110E0DDE902014A00521512F14B
:10061000010F11D108030FD1ABF1610503211A2D90
:1006200008911FD30FF600110322604600F036FD3B
:1006300057E30FF6E801F7E7DDE902016A4600F04B
:1006400081FDCDE902014BF02000612811D1059810
:1006500030210170821C0592BBF1610F0CBF782123
:10066000582102E00FF6BC01DEE741700798801CBC
:100670000790DDE9020120F0000231F0004308BFDD
:10068000002A02D10026002542E14BF02008B8F1F3
:10069000610F40F092800E98002847BF2121019100
:1006A000401C0190019FDDE92C017F1C00220023EA
:1006B000DDE9024500F07EFD38BF85F00045009978
:1006C0008DF88420091F002F00910DF1850632DD81
:1006D000204629460022002300F086FD2BD21C2252
:1006E00000F09CFD04460D4600F01AFEFF1F002F8F
:1006F000804609DD00F01BFE02460B4620462946D7
:1007000000F01CFE04460D46F01D0721B8F1000F55
:100710000CDD491E5EBF08F00F0200F8012D4FEA04
:100720002818F3D502E0002200F8012D491EFAD561
:10073000C61D002FCCDC0DF18500361A01980DF195
:1007400085048642D8BF304600282FD4B04206DA4E
:100750000DF185010A5C082AA8BF0F2100DA0021EB
:10076000024621AB134400E0401E13F80159521E0B
:100770008D42F9D00F2904D10DF185018B5C5B1CF2
:100780008B54002A04D50099091D21AC401C00910E
:10079000411E0BD4621813783033DDB23A2DA4BF5A
:1007A0005B443A3B491E02F80139F4D50E99002901
:1007B00040F1AC80421E0E92A8E00099DFF8E826D6
:1007C00047F29750414391FBF2F20092DDE92C454C
:1007D000C2F10702002A25F0004504DD2046294623
:1007E00000F03EFB0BE052420020DFF8C01600F0A4
:1007F00037FB02460B462046294600F0A8FD04467A
:100800000D46B8F1660F06BF009F0A3706270E98FF
:100810003F18142FC8BF142730208DF884000DF125
:100820008506002F34DD2046294600F099FD01465B
:100830000A4606F1080304200A26B2FBF6F606EB88
:10084000860EA2EB4E02303203F8012C0A22B6FBD0
:10085000F2F202EB820EA6EB4E063036401E03F893
:10086000026DE9D1083F002F03F10806D9DD0846E3
:1008700000F07DFD02460B462046294600F05EFD55
:100880000022DFF82C3600F079FD04460D46CAE759
:100890000DF18500361A0DF1850404E00098401E24
:1008A000761E0090641C20783028F7D0B8F1660FCF
:1008B00002D10098401C04E0B8F1650F0CBF012084
:1008C00000200E9940188642B8BF701E00281DD423
:1008D000B04204DA215C3429C8BF392100DC302160
:1008E0000246631E9D1800E0401E15F80169521E65
:1008F0008E42F9D0392902D1A15C491CA154002AA9
:1009000004D50099491C1C46401C00910646009DD8
:100910000E9F30B2002802DC01260FF210644BF06B
:100920002000662808BF6D1C15D067280FFA85F8CF
:1009300041D118F1040F44DBB84542DA9DF840007C
:100940006D1C010703D430B2B842D8BF074628B2A5
:100950003F1A48BF00270FFA85F8B8F1000F00F3DF
:10096000AF800898411C0891302205990A54002F45
:1009700003DC9DF84000010705D50898411C08914B
:100980002E2205990A5417EB080FB8BF7D422DB2ED
:100990006842ED1932B20B909542B8BF2E46059BC6
:1009A000089836B2099632462146184400F076FB84
:1009B000AD1B0C95CCE0BBF1610F15D14FF0700B66
:1009C00017E030B2B84204DA9DF840100A0758BF69
:1009D00007467F1E48BF0027BBF1670F14BF4FF0CB
:1009E000450B4FF0650B04E0BBF1410F08BF4FF022
:1009F000500B0898411C0891002F059914F8012B01
:100A00000A5403DC9DF84000010719D50898411CE1
:100A100008912E2205990A54002F11DD761E30B25E
:100A20008742B8BF3E460598089B32B2214618441B
:100A300000F034FB089836B23018BF1B08900B97B3
:100A4000059808990844B8F1000F80F800B003D465
:100A50002B224270821C04E02D2145464170821CED
:100A60006D4200212CAB28460AE004460A2094FB84
:100A7000F0F000EB8005A4EB450403F8014B491CA2
:100A800000B20028F1DC012906DC4BF020006528CB
:100A900004BF302002F8010B00292CAB08D1302014
:100AA00002F8010B06E0491E585C303002F8010BD9
:100AB0000029F8DC059908980844121A099247E0C1
:100AC00030B229B288421BDA0598089B32B221461F
:100AD000184400F0E3FA089936B271180891A8EBAF
:100AE0000600002F0B9003DC9DF84000020705D59F
:100AF000059A2E2050540999491C09910C9727E01A
:100B00000598089B2AB22146184400F0C7FA0898B5
:100B1000761B4044002F089003DC9DF840100A0724
:100B200004D5411C08912E2205990A5430B28742FF
:100B3000B8BF3E460598089B32B204EB0801184442
:100B400000F0ACFA089836B23018BE1B08900B962D
:100B50009DF8400000F01400102840F0C280079A71
:100B600008980B99821809988A1882180C980F997E
:100B70008018884280F2B580081A0A90B1E09DF88A
:100B80004200622808D068280ED06A2814D06C2849
:100B90001FD0712810D01CE0D9F8001051F8040BB8
:100BA000C9F80010C0B21AE0D9F8001051F8040BCF
:100BB000C9F8001080B212E0D9F80000C21D22F07E
:100BC0000702C9F80020D2E900010832C9F8002064
:100BD00006E0D9F8001051F8040BC9F80010002104
:100BE000CDE902019DF8400001075AD5DDE9022355
:100BF000002B08BF002A54D04BF02000782850D199
:100C0000079812A930220A54401C431C079301F88C
:100C100000B046E09DF84200622808D068280ED057
:100C20006A2814D06C281FD0712810D01CE0D9F885
:100C3000001051F8040BC9F8001040B21AE0D9F8BE
:100C4000001051F8040BC9F8001000B212E0D9F8F6
:100C50000000C21D22F00702C9F80020D2E90001FD
:100C60000832C9F8002006E0D9F8001051F8040B4A
:100C7000C9F80010C117CDE90201002902D5079873
:100C80002D210AE0BDF84000810702D507982B21ED
:100C900003E0C00705D50798202112AA1154401C73
:100CA000079012A8079901440591594602A800F03F
:100CB0004DF816E001200790D9F8000050F8041B09
:100CC000C9F800008DF848100BE001212522BBF186
:100CD000000F07918DF8482003D0022207928DF86B
:100CE00049B00F9D07990A986D1A08992D1A0B980B
:100CF0006D1A09992D1A0C986D1A9DF840102D1A2D
:100D000048073FF5DFAA2021002D8DF800107FF75E
:100D1000D9AA309E2C46FFF7C9BA4FF0FF3031B048
:100D2000BDE8F08FCBCCCC0C686A6C747A4C0000B8
:100D30007072696E74665F733A2062616420257315
:100D400020617267756D656E740000002DE9FC47C7
:100D500007468A463C6950466F2808BF082505D0DB
:100D6000FFF78EF9782814BF0A251025D7E900016E
:100D70003C2680468946BAF1640F18BFBAF1690F64
:100D800005D1002903D5D8F1000869EB4909B9F16B
:100D9000000F08BFB8F1000F0CD1386B50B9082D07
:100DA0003AD197F83800010736D530223B2684F82F
:100DB0003B2031E08DF800A0404649462A46EB171B
:100DC00000F0E6FA3032D0B2761E3A2801960EDAFA
:100DD000A255404649462A46EB1700F0D9FA80460C
:100DE0005FEA010908BFB8F1000F05D108E09DF8DE
:100DF00000001218513AEBE7F868A1198842DBD3DA
:100E0000082D09D197F83800010705D5A05D3028D5
:100E100002D0761E3020A055C6F13C03BB61A1195B
:100E2000F960386B834208DAC31A3B624FF6EF7001
:100E3000398F01403987BDE8F38700280ED597F830
:100E4000380000F01400102808D17A6B7969386AEC
:100E5000521A121AD21A002AC8BF3A62BDE8F387A2
:100E60002DE9D04306460F4614464FF00008DFF840
:100E7000449012E0E00707D542464B4630463946DB
:100E800000F07CFA06460F464046494642464B462D
:100E900000F074FA641080468946002CEAD130468E
:100EA0003946BDE8D0830000A08601000000F03F75
:100EB00084D7974100002440F8B505460E461746F2
:100EC0001C4600205CB117F8011BB068A847B06051
:100ED00030B1F06A401CF0620020641EF3D1F2BD14
:100EE0004FF0FF30F2BD00007072696E74665F7380
:100EF0003A20256E20646973616C6C6F77656400BD
:100F00007072696E74663A2062616420256E206199
:100F10007267756D656E7400000000006E616E0092
:100F20004E414E00696E6600494E46003000F0B4F6
:100F30000246106895681318506803EB5004C00708
:100F400048BF4D44A3422DD013F8016B16F00300A7
:100F500004BF13F8010BC01C31090F2907D113F886
:100F6000011B0F3103E013F8017B05F8017B401EE4
:100F7000F9D10029E6D013F8010BC6F38106032E40
:100F800008BF13F8016B00EB0620404228440026FE
:100F9000B71E8F421EBF10F8017B05F8017B761C3F
:100FA000F6D1CFE7F0BC02F10C007047C9B202786D
:100FB0008A421AB11CBF10F8012FF9E718BF0020B0
:100FC00070470268531C03601170704780B500B908
:100FD00006A005490B681BB122220021984701E0B9
:100FE00000F0EEFA222002BDB4100228636F6E7387
:100FF000747261696E742068616E646C65723A2007
:10100000626164206D6573736167650000F10103BF
:10101000810704D010F8011B820781B1FAD1026860
:10102000A2F10131914311F0803104BF50F8042F37
:10103000F6E709BAB1FA81F100EBD100401CC01A01
:1010400070470000C9B2830706D0521E22D310F8A1
:10105000013B9942F7D11FE0083A13D302F1040291
:1010600041EA012141EA014150F8043B121F21BF2E
:101070004B40A3F1013C2CEA030C1CF0803FF3D061
:10108000C9B2001F083210F8013B521E28BF91EA76
:10109000030FF8D818BF0120401E704762B38B07BA
:1010A00008D0521E11F8013B00F8013B00F02480EB
:1010B0008B07F6D1830740F0208000BF103A07D39A
:1010C00030B4B1E83810103AA0E83810F9D230BC8A
:1010D000530724BFB1E80810A0E8081044BF51F836
:1010E000043B40F8043BD20724BF31F8022B20F820
:1010F000022B44BF0B7803707047121F17D35B009D
:1011000009D151F8043B20F8023B1B0C121F20F8B8
:10111000023BF6D20BE051F8043B00F8013B1B0AFE
:1011200020F8023B1B0C121F00F8013BF3D238BF22
:10113000121D521E24BF11F8013B00F8013BF8D8E4
:101140007047000010B5144600F002F8226010BD90
:10115000C1F30A5343B14A0012F5001F28D2A3F28B
:10116000FE32A1EB0251704750EA410C20D001F051
:10117000004C31EA0C01B1FA81F204BFB0FA80F3FD
:10118000D2180B3AB2F120032CBF00FA03F19140C0
:1011900041EA0C013EBFC2F1200C20FA0CF31943C6
:1011A0009040524240F2FD33D21A01EB0351704796
:1011B0000022704741EA030C50EA4C0C52EA0C0C36
:1011C0004FF4001C09D307D01CEB410F9CBF1CEB54
:1011D000430F8B4208BF824270471CEB430FFBD882
:1011E000994208BF9042704741EA030C50EA4C0C08
:1011F00052EA0C0C4FF4001C09D307D01CEB410F32
:101200009CBF1CEB430F994208BF904270471CEBF8
:10121000410FFBD88B4208BF8242704700B541ECBA
:10122000100B104600F004F851EC100B00BD00BF8D
:10123000020030EE101B40F2FF7C37D41CEA115341
:1012400013D063456BD09B18634504D201EB025168
:1012500020EE101B704701F0004141EA0C510020C4
:1012600041EC100BAFF30080704710EE100B50EA0A
:10127000410054D0B2F57F7F08D202EB5C01090532
:10128000002041EC110B20EE010B70474FF0FE41A6
:10129000002341EC113B20EE010BB2F57E7230EEE3
:1012A000101B4FEA410342EB5353CDE752421CEA75
:1012B000115316D0634532D09A4204D2A1EB0251A9
:1012C00020EE101B70475B1ED21AA1EB035120EEDB
:1012D000101B372A0CD3002001F0004141EC100B09
:1012E000C0E710EE100B50EA410018D0372AF2D2B6
:1012F000C2EB5C021105002041EC110BF1EE100A6B
:1013000020F01F0121F4F851E1EE101A20EE010B3C
:10131000F1EE101AE1EE100A11F0080FA2D1704799
:1013200041EC100BBDEEC00B10EE100A704700EE42
:10133000100AB8EEC00B51EC100B704741EC100BCB
:1013400043EC112B30EE410B51EC100B704741EC8C
:10135000100B43EC112B80EE010B51EC100B70477E
:1013600041EC100BBCEEC00B10EE100A704700EE03
:10137000100AB8EE400B51EC100B704741EC100B0B
:1013800043EC112B20EE010B51EC100B70470000C9
:10139000BBBBE1B1B2F5803F80F07E80022A1ED94E
:1013A0008C46B1FBF2F102FB11C31B0443EA10436C
:1013B000B3FBF2FC02FB1C3380B240EA0343B3FBF5
:1013C000F2F002FB103240EA0C4000237047022A80
:1013D00005D98446B0FBF2F002FB10C270474AB157
:1013E00005D100F0010249085FEA30007047002291
:1013F0000023704700F0E8B80B0002000021002035
:101400007047904271EB030CF6D3B3F5803F2FD2B7
:10141000F0B5B3FA83F7B1FA81F4A7F10F0E3D1BD3
:101420005340CEF1200602FA0EF2F3415340B5F1DB
:101430000F0746D80F3C2C444140C4F12006A04081
:10144000F1414140B1FBF3F603FB1611A2FB064547
:10145000001BA94102D2761E8018594180EA010280
:1014600021FA0EF362FA0EF200215A403046F0BD26
:1014700030B4B1FBF3FC03FB1C11A2FB0C45001BB9
:10148000A94103D2ACF1010C8018594130BC02468D
:101490000B46604600217047B2F1807F65D3F0B5FE
:1014A000B2FA82F7B1FA81F4C7F10F063D1B22FAB6
:1014B00006F307F1110EF24120355A40B5F10F073E
:1014C000B8D94140C4F12006A040F1414140B1FBF0
:1014D000F3FC03FB1C11A2FB0C45001BA94103D22A
:1014E000BCF1010C801859410F2F12D30F3FC903D3
:1014F00041EA5041B1FBF3F603FB1611A2FB06458E
:10150000D4EBC030A94102D2761E8018594146EA78
:10151000CC3C07B34140C7F12006B840F1414140FF
:10152000B1FBF3F603FB1611A2FB0645001BA94114
:1015300002D2761E8018594180EA010221FA0EF388
:10154000C7F1200462FA0EF20CFA07F05A402CFAA6
:1015500004F13043F0BD80EA010221FA0EF30021CC
:1015600062FA0EF260465A40F0BD8C46B1FBF2F1D1
:1015700002FB11C31B0243EA1063B3FBF2FC02FB44
:101580001C331B024CEA002043EA1063B3FBF2FC5D
:1015900002FB1C331B024CEA002043EA1063B3FB3E
:1015A000F2FC02FB1C331B024CEA002043EA1063EE
:1015B000B3FBF2FC02FB1C324CEA00200023704714
:1015C000012000F003B800007047000080B5AFF3C1
:1015D0000080024A11001820ABBEFBE72600020083
:1015E000022801D3012010E00B00DBB2042B01DB49
:1015F00001200AE0DFF8283803EB8000C9B2405C24
:10160000824201D3012000E000207047F8B50600B7
:101610000F0015001C00022E01D301201DE02A003E
:101620003900C9B23000FFF7DBFF012801D10120EA
:1016300013E03800C0B2002812D1B4F5807F0DD27B
:10164000DFF8E0077603304400EB850010F58050AA
:10165000016864F30F2101600020F2BD0120FCE766
:10166000FFB2012F11D1B4F5803F0CD2DFF8B407DF
:101670007603304400EB850010F5A050016864F358
:1016800017210160E8E70120E7E70120E5E700B264
:101690000012C0B27047F8B505000E001700280010
:1016A00000B2FFF7F4FF04002000C0B2022801D30B
:1016B000012024E03A003100C9B22000C0B2FFF797
:1016C0008FFF012801D1012019E0DFF85817200011
:1016D000C0B2400308442A00D2B200EB8200D0F826
:1016E000000CF6B266F3092067F30700E4B2640366
:1016F0002144EDB201EB8501C1F8000C0020F2BDE0
:1017000070B504000D001600022C01D301201DE06D
:1017100032002900C9B22000FFF762FF012801D181
:10172000012013E0DFF8FC166003085850F0004079
:1017300050F0407050F47F00EDB265F3092066F37D
:1017400007006203885064030859002070BD10B57B
:10175000C0B2002800F0EA80022800F0EB80C0F060
:10176000E780042800F0EA80C0F0E680062800F058
:10177000E980C0F0E580082800F0E880C0F0E4804F
:101780000A2800F0E780C0F0E3800C2800F0E68033
:10179000C0F0E2800E2800F0E580C0F0E180102863
:1017A00000F0E480C0F0E080122800F0E380C0F098
:1017B000DF80142800F0E280C0F0DE80162800F000
:1017C000E180C0F0DD80182800F0E080C0F0DC800F
:1017D0001A2800F0DF80C0F0DB801C2800F0DE80DB
:1017E000C0F0DA801E2800F0DD80C0F0D98020280B
:1017F00000F0DC80C0F0D880222800F0DB80C0F050
:10180000D780242800F0DA80C0F0D680262800F0A7
:10181000D980C0F0D580282800F0D880C0F0D480CE
:101820002A2800F0D780C0F0D3802C2800F0D68082
:10183000C0F0D2802E2800F0D580C0F0D1803028B2
:1018400000F0D480C0F0D080322800F0D380C0F007
:10185000CF80342800F0D280C0F0CE80362800F04F
:10186000D180C0F0CD80382800F0D080C0F0CC808E
:101870003A2800F0CF80C0F0CB803C2800F0CE802A
:10188000C0F0CA803E2800F0CD80C0F0C98040285A
:1018900000F0CC80C0F0C880422800F0CB80C0F0BF
:1018A000C780442800F0CA80C0F0C680462800F0F7
:1018B000C980C0F0C580482800F0C880C0F0C4804E
:1018C0004A2800F0C780C0F0C3804C2800F0C680D2
:1018D000C0F0C2804E2800F0C580C0F0C180502802
:1018E00000F0C480C0F0C080522800F0C380C0F077
:1018F000BF80542800F0C280C0F0BE80562800F09F
:10190000C180C0F0BD80582800F0C080C0F0BC800D
:101910005A2800F0BF80C0F0BB805C2800F0BE8079
:10192000C0F0BA805D2800F0BB80BBE01924BFE0A6
:101930003124BDE01824BBE03324B9E03524B7E0FE
:101940001424B5E03724B3E01324B1E02024AFE041
:101950001224ADE02124ABE01124A9E01024A7E07B
:101960002824A5E02924A3E02A24A1E009249FE05B
:101970002B249DE008249BE02C2499E0032497E08D
:10198000022495E0392493E03B2491E03D248FE04C
:1019900001248DE03F248BE0002489E0402487E08F
:1019A000412485E0422483E0432481E0BF247FE09A
:1019B00048247DE049247BE0BC2479E0992477E049
:1019C0009A2475E0502473E09B2471E0B6246FE004
:1019D00051246DE09C246BE0B52469E0522467E05B
:1019E000A02465E0B42463E0532461E0B3245FE005
:1019F00054245DE0B2245BE0B12459E0AD2457E00B
:101A0000602455E0AE2453E0612451E0AD244FE062
:101A100062244DE063244BE0AB2449E0642447E0BA
:101A2000AA2445E0652443E0A92441E0A8243FE03E
:101A300069243DE06B243BE06D2439E06F2437E0FE
:101A4000A32435E0702433E0A22431E071242FE098
:101A5000A1242DE097242BE0962429E0742427E08C
:101A6000952425E0752423E0942421E093241FE0AD
:101A700092241DE078241BE0792419E08C2417E0DF
:101A80007A2415E08B2413E07B2411E08A240FE0F4
:101A90005A240DE059240BE0892409E0582407E07A
:101AA000882405E09D22DFF8E818002000F010FEF1
:101AB0002000C0B210BD10B5C0B2002800F0EA800E
:101AC000022800F0EB80C0F0E780042800F0EA80F4
:101AD000C0F0E680062800F0E980C0F0E580082824
:101AE00000F0E880C0F0E4800A2800F0E780C0F051
:101AF000E3800C2800F0E680C0F0E2800E2800F0C1
:101B0000E580C0F0E180102800F0E480C0F0E080C3
:101B1000122800F0E380C0F0DF80142800F0E2809B
:101B2000C0F0DE80162800F0E180C0F0DD801828CB
:101B300000F0E080C0F0DC801A2800F0DF80C0F008
:101B4000DB801C2800F0DE80C0F0DA801E2800F068
:101B5000DD80C0F0D980202800F0DC80C0F0D88083
:101B6000222800F0DB80C0F0D780242800F0DA8043
:101B7000C0F0D680262800F0D980C0F0D580282873
:101B800000F0D880C0F0D4802A2800F0D780C0F0C0
:101B9000D3802C2800F0D680C0F0D2802E2800F010
:101BA000D580C0F0D180302800F0D480C0F0D08043
:101BB000322800F0D380C0F0CF80342800F0D280EB
:101BC000C0F0CE80362800F0D180C0F0CD8038281B
:101BD00000F0D080C0F0CC803A2800F0CF80C0F078
:101BE000CB803C2800F0CE80C0F0CA803E2800F0B8
:101BF000CD80C0F0C980402800F0CC80C0F0C88003
:101C0000422800F0CB80C0F0C780442800F0CA8092
:101C1000C0F0C680462800F0C980C0F0C5804828C2
:101C200000F0C880C0F0C4804A2800F0C780C0F02F
:101C3000C3804C2800F0C680C0F0C2804E2800F05F
:101C4000C580C0F0C180502800F0C480C0F0C080C2
:101C5000522800F0C380C0F0BF80542800F0C2803A
:101C6000C0F0BE80562800F0C180C0F0BD8058286A
:101C700000F0C080C0F0BC805A2800F0BF80C0F0E7
:101C8000BB805C2800F0BE80C0F0BA805D2800F008
:101C9000BB80BBE00824C0E00824BEE00824BCE010
:101CA0000824BAE00824B8E00824B6E00824B4E028
:101CB0000824B2E00824B0E00824AEE00824ACE038
:101CC0000824AAE00824A8E00824A6E00824A4E048
:101CD0000824A2E00824A0E008249EE008249CE058
:101CE00008249AE0082498E0082496E0082494E068
:101CF000082492E0082490E008248EE008248CE078
:101D000008248AE0082488E0082486E0082484E087
:101D1000082482E0082480E008247EE008247CE097
:101D200008247AE0082478E0082476E0082474E0A7
:101D3000082472E0082470E008246EE008246CE0B7
:101D400008246AE0082468E0082466E0082464E0C7
:101D5000082462E0082460E008245EE008245CE0D7
:101D600008245AE0162458E0082456E0082454E0D9
:101D7000082452E0082450E008244EE008244CE0F7
:101D800008244AE0082448E0082446E0082444E007
:101D9000082442E0082440E008243EE008243CE017
:101DA00008243AE0082438E0082436E0082434E027
:101DB000082432E0082430E008242EE008242CE037
:101DC00008242AE0082428E0082426E0082424E047
:101DD000082422E0082420E008241EE008241CE057
:101DE00008241AE0082418E0082416E0082414E067
:101DF000082412E0082410E008240EE008240CE077
:101E000008240AE0082408E0082406E04FF486725B
:101E1000DFF87C15002000F05BFC2000C0B210BD94
:101E2000889E08100000044080B5C0B2002800F071
:101E3000EA80022800F0EB80C0F0E780042800F080
:101E4000EA80C0F0E680062800F0E980C0F0E58076
:101E5000082800F0E880C0F0E4800A2800F0E7805D
:101E6000C0F0E3800C2800F0E680C0F0E2800E288D
:101E700000F0E580C0F0E180102800F0E480C0F0C0
:101E8000E080122800F0E380C0F0DF80142800F02A
:101E9000E280C0F0DE80162800F0E180C0F0DD8036
:101EA000182800F0E080C0F0DC801A2800F0DF8005
:101EB000C0F0DB801C2800F0DE80C0F0DA801E2835
:101EC00000F0DD80C0F0D980202800F0DC80C0F078
:101ED000D880222800F0DB80C0F0D780242800F0D2
:101EE000DA80C0F0D680262800F0D980C0F0D580F6
:101EF000282800F0D880C0F0D4802A2800F0D780AD
:101F0000C0F0D3802C2800F0D680C0F0D2802E28DC
:101F100000F0D580C0F0D180302800F0D480C0F02F
:101F2000D080322800F0D380C0F0CF80342800F079
:101F3000D280C0F0CE80362800F0D180C0F0CD80B5
:101F4000382800F0D080C0F0CC803A2800F0CF8054
:101F5000C0F0CB803C2800F0CE80C0F0CA803E2884
:101F600000F0CD80C0F0C980402800F0CC80C0F0E7
:101F7000C880422800F0CB80C0F0C780442800F021
:101F8000CA80C0F0C680462800F0C980C0F0C58075
:101F9000482800F0C880C0F0C4804A2800F0C780FC
:101FA000C0F0C3804C2800F0C680C0F0C2804E282C
:101FB00000F0C580C0F0C180502800F0C480C0F09F
:101FC000C080522800F0C380C0F0BF80542800F0C9
:101FD000C280C0F0BE80562800F0C180C0F0BD8035
:101FE000582800F0C080C0F0BC805A2800F0BF80A4
:101FF000C0F0BB805C2800F0BE80C0F0BA805D28D5
:1020000000F0BB80BBE00020C0E00020BEE001206B
:10201000BCE00120BAE00220B8E00320B6E00320D3
:10202000B4E00420B2E00420B0E00520AEE00520DA
:10203000ACE00620AAE00720A8E00920A6E00A20DC
:10204000A4E00B20A2E00B20A0E00C209EE00C20DE
:102050009CE00D209AE00D2098E00E2096E00F20E5
:1020600094E0102092E0112090E011208EE01220E8
:102070008CE012208AE0132088E0142086E01520EE
:1020800084E0162082E0162080E018207EE01920EF
:102090007CE019207AE01A2078E01B2076E01C20F2
:1020A00074E01C2072E01C2070E01D206EE01D20FA
:1020B0006CE01D206AE01E2068E01E2066E01E2005
:1020C00064E01F2062E01F2060E020205EE020200E
:1020D0005CE021205AE0222058E0242056E0242011
:1020E00054E0252052E0252050E026204EE0272015
:1020F0004CE027204AE0282048E0282046E029201C
:1021000044E0292042E02A2040E02C203EE02D201F
:102110003CE02E203AE02F2038E02F2036E030201F
:1021200034E0302032E0312030E031202EE0322027
:102130002CE033202AE0342028E0342026E035202B
:1021400024E0352022E0362020E037201EE0382031
:102150001CE039201AE0392018E03A2016E03A2035
:1021600014E03B2012E03B2010E03B200EE03C203E
:102170000CE03C200AE03D2008E03D2006E040F273
:102180007B128349002000F0A3FA0020C0B202BDF8
:10219000002007E07F49C2018A5822F00042C301B3
:1021A000CA50401C3F28F5DB70472DE9F041AAB02A
:1021B00004000D001600342100221DAF380000F08D
:1021C00019FB0020742100226F46380000F012FB3A
:1021D0000E201E902000C0B2FFF76DFC8DF87C0031
:1021E0002000C0B2FFF7B3FA07005FF00808200034
:1021F000C0B2FFF7ACFA1DAA97FBF8F108FB117704
:102200003900654BC0B2C010C001184400F0B1FBEA
:102210002000C0B2FFF708FE00220121C0B210F575
:10222000937000B2FFF737FA2000C0B2FFF7FCFD51
:10223000C0B210F5937000B2FFF729FA092300220B
:102240000121C0B2FFF7E2F92000C0B2FFF7ECFDB8
:10225000C0B210F5937000B2FFF719FA0022012105
:10226000C0B2FFF74DFA4D48B0FBF5F1090C4B48F1
:102270002A04B0FBF2F302FB1300002800D0491C33
:10228000022903D200208DF801002FE0032903D298
:1022900001208DF8010029E0052903D202208DF8E4
:1022A000010023E0092903D203208DF801001DE07D
:1022B000112903D204208DF8010017E0212903D24F
:1022C00005208DF8010011E0412903D206208DF888
:1022D00001000BE0812903D207208DF8010005E001
:1022E00040F2C9122A49002000F0F2F904208DF8CA
:1022F000000001208DF8100000208DF8110003204F
:102300008DF8120003208DF8130000208DF80800CE
:10231000224901229DF901008240B1FBF2F0B0FB9D
:10232000F5F0401E05900598401C06FB00F642F2B1
:102330001070B6FBF0F0089002208DF840000320EA
:102340008DF8680001201B9001208DF828002000E6
:10235000C0B2FFF769FD0F4D6946C0B2C001284405
:1023600000F046FB2000C0B2FFF75EFDC0B2C00126
:10237000284400F03DFC2000C0B2FFF755FDC0B27C
:10238000C001284400F039FC2AB0BDE8F08100000B
:10239000E49A0810000058400000314000127A0012
:1023A00082B000200190002000900020019009E000
:1023B0000098401C00900098B0F5005FF8D3019899
:1023C000401C01900198B0F5805F02D2002000907F
:1023D000F1E702B0704780B50100002000F08EFEEA
:1023E00001BD2DE9F043ADF5137D070088461600C9
:1023F0001C000020ADF802000020ADF80000002015
:1024000002900020ADF804000020ADF80600404620
:10241000FEF7FCFD0290DFF8A0532888002801D0C9
:1024200028698047DFF894030078002800F03381A2
:102430002888002800F01181BDF90600411CADF884
:1024400006103A00010089B20020EB689847474621
:102450004046FEF7DBFD02906888A97990FBF1F019
:10246000ADF804003800471C00780028FAD100209D
:10247000ADF800000EE07F1E38782F2802D03878A3
:102480005C2804D1BDF80000401CADF800000298A3
:10249000401E0290BDF80000022802DA02980028CF
:1024A000E9D50298002806D47A1CDFF8141353A843
:1024B00001F05AF80EE0BDF80000002805D13A00FE
:1024C000C04953A801F050F804E03A00BC4953A8B1
:1024D00001F04AF80020ADF8020042E0BDF800101B
:1024E000BDF80020BDF8023053AF9BB2BDF9040027
:1024F000434313FA82F0385C43AA89B25054BDF8C2
:102500000000401CADF80000BDF8000080B2BDF92D
:10251000041088420EDA53A8FEF778FDBDF80020BB
:10252000BDF802309BB2BDF904104B4313FA82F19F
:102530008842D3D2002043A9BDF800208854BDF9B9
:102540000600411CADF8061043AAE97911FB00F121
:1025500089B20020EB689847BDF80200401CADF836
:102560000200BDF8027053A8FEF750FDBDF904103B
:10257000B0FBF1F0401CBFB2874203D20020ADF89F
:102580000000C1E73200904953A800F0EDFFBDF90B
:102590000600411CADF8061053AAE97911FB00F1C1
:1025A00089B20020EB689847002C74D00020ADF869
:1025B000020041E0BDF80010BDF80020BDF8023077
:1025C0009BB2BDF90400434313FA82F0205C43AA96
:1025D00089B25054BDF80000401CADF80000BDF8B1
:1025E000000080B2BDF9041088420EDA2000FEF728
:1025F0000DFDBDF80020BDF802309BB2BDF90410FE
:102600004B4313FA82F18842D4D2002043A9BDF88B
:1026100000208854BDF90600411CADF8061043AAFD
:10262000E97911FB00F189B20020EB689847BDF809
:102630000200401CADF80200BDF802602000FEF769
:10264000E5FCBDF90410B0FBF1F0401CB6B28642C7
:1026500021D20020ADF80000C1E74FF480710022C4
:102660000DF10C09484600F0C5F83800A968884704
:10267000002C07D0009433004246544903A800F0D0
:1026800073FF05E033004246514903A800F06CFF98
:1026900003A8A96888470DF5137DBDE8F08310B540
:1026A00046480078002809D04B4C2100002000F05B
:1026B00033FD01222100474800F0DBFF10BD10B5BB
:1026C00014002200D2B2002000F009FD200010BD4D
:1026D00038B50C001500C0B2002803D13F4800787F
:1026E000002800D131BD3E490878002800D0FEE71F
:1026F0000878401C087001F0C5F900232A00210069
:102700003848FFF76EFEFFF74BFEF6E710B51400F2
:102710001A00C0B2002808D128480078002804D048
:102720000B0021003048FFF75CFE10BD0021018046
:102730004FF6FF7141808180FF218171C1710021BD
:1027400081600021C1600021016170471A4902883F
:102750000A8042884A8082888A8082798A71C27916
:10276000CA7182688A60C268CA6000690861012013
:1027700012490870704700B585B06846FFF7D6FF6C
:102780001A4802906846FFF7E1FF05B000BD80B52A
:10279000FFF7F1FF002300225FF4E131002000F099
:1027A000E0FD4023124A00210A4801F002F901210C
:1027B000002000F057FD01BD0C100228D3100228A4
:1027C000589E0810209E0810649E0810509D081006
:1027D000F09D0810DC0F0228D41002280E080228F1
:1027E000D5100228309E0810709E0810D7230810BC
:1027F000540F022862F30F2262F31F42401810F0B8
:10280000030308D0C91A1FD3DB0748BF00F8012D06
:1028100028BF20F8022D130030B414461546103995
:1028200028BF20E93C00FAD8490728BF20E90C005E
:1028300048BF40F8042D890028BF20F8022D48BF6A
:1028400000F8012D30BC7047C91818BF00F8012DE1
:10285000CB0728BF00F8012D7047000030B4614B52
:102860001818C009604C14EB001404290DD2236819
:102870001F25C8008540AB43D2B212F01F02C90029
:1028800012FA01F1194321600CE0091F63681F254A
:10289000C8008540AB43D2B212F01F02C9008A4083
:1028A0001A43626030BC7047002A04D1012212FA38
:1028B00001F1416003E0012212FA01F181607047E9
:1028C00010B48900436C0F248C40A34312F00F0214
:1028D00012FA01F11943416410BC704710B4836CC3
:1028E00001248C40A34312F0010212FA01F11943B2
:1028F000816410BC704710B4C36C01248C40A343A6
:1029000012F0010212FA01F11943C16410BC7047C0
:1029100010B449001031C36C03248C40A34312F05F
:10292000030212FA01F11943C16410BC70474269F5
:10293000012212FA01F141614069704710B48369C4
:1029400001248C40A34312F0010212FA01F1194351
:10295000816110BC704710B44900036C03248C40A3
:10296000A34312F0030212FA01F11943016410BCEF
:102970007047F8B505000E0014000027002D2ED07A
:10298000002C2CD0226831002800FFF78DFF227A1E
:1029900031002800FFF762FF626931002800FFF76D
:1029A0009DFFA26931002800FFF7A5FFE269310011
:1029B0002800FFF7ADFF626831002800FFF780FFB5
:1029C000E26831002800FFF7C6FF31002800FFF75A
:1029D000AEFF226931002800FFF7B0FF00E0034F8F
:1029E0003800F2BD0000CFBF0000304001005A00A7
:1029F0000122002800F0EC80002900F0E980754AEF
:102A000012680B7A63F392420B7B13F0030363F3B8
:102A100011420B7813F0070363F31A628B7863F3A8
:102A20009E7291F8283063F3000291F8343063F31A
:102A300041020B7F63F382024B7F63F3C30291F881
:102A4000403063F38A2291F84030DBB25B08DBB29E
:102A500063F3492291F8703063F3082291F87130E2
:102A600013F0030363F30D3202600A7A002A02D1E5
:102A70000022826007E00A7A012A02D14A69826054
:102A800001E0012282600A6A02614A6A4261CA6AFE
:102A900082610A6BC2614A6902628A6942624E4A75
:102AA000126891F8443003F0FF03120A12021A432D
:102AB00091F84C3003F0FF0363F3174291F85C3058
:102AC00003F0FF0363F31F6291F86C3003F0FF0320
:102AD00063F30F224264414A126891F8643003F0B4
:102AE000FF0363F30F2291F8543003F0FF03120A3F
:102AF00012021A4382643A4A126891F8413013F084
:102B00000303920892001A4391F8603013F0030314
:102B100063F38B2291F8483013F0030363F305123B
:102B200091F8503013F0030363F3092291F8583001
:102B300013F0030363F3871291F8683013F0030373
:102B400063F38302C264274A126891F8723013F06B
:102B50000703D208D2001A4391F8733013F0070329
:102B600063F30612426591F8352082671E4A1268A7
:102B70000B7C13F00303920892001A43CB7C13F0F2
:102B8000030363F387124B7C13F0030363F38302A5
:102B90008B7C13F0030363F305120265134A12687A
:102BA000CB8863F31F428B889BB21B0A9BB263F3F3
:102BB0000F220B78052B06D1097901F0FF01120ACB
:102BC00012020A4302E0497861F30702026300221D
:102BD000100070473C9F0810409F0810449F081049
:102BE000489F08104C9F0810509F0810549F0810D1
:102BF000016851F00041016070474030016851F0B8
:102C00001001016070470000022801D3012010E08C
:102C10000B00DBB2042B01DB01200AE0DFF80439F2
:102C200003EB8000C9B2405C824201D3012000E086
:102C300000207047F8B504000F0015001E00022C9C
:102C400001D301202AE02A003900C9B22000FFF791
:102C5000DBFF012801D1012020E006983900C9B22C
:102C600002291ED1B6F5803F19D2202817D24FF481
:102C7000C052DFF8B41863030B4403EB850313441D
:102C80001F6866F317271F606403214401EB850169
:102C900011440A6860F3C7020A600020F2BD0120F7
:102CA000FCE7FFB2032F1FD1B6F1807F1AD2202894
:102CB00018D24FF4E052DFF8701863030B4403EBB3
:102CC000850313441F6807F0FF0757EA06271F60B4
:102CD0006403214401EB850111440A6860F3C702D3
:102CE0000A60DAE70120D9E70120D7E700B2001235
:102CF000C0B27047F8B505000E001700280000B2FA
:102D0000FFF7F4FF04002000C0B2022801D3012025
:102D100024E03A003100C9B22000C0B2FFF774FFCE
:102D2000012801D1012019E0DFF8FC172000C0B212
:102D3000400308442A00D2B200EB8200D0F8000C15
:102D4000F6B266F3092067F30700E4B26403214496
:102D5000EDB201EB8501C1F8000C0020F2BD70B5A9
:102D600004000D001600022C01D301201DE03200EA
:102D70002900C9B22000FFF747FF012801D1012037
:102D800013E0DFF8A4176003085850F0004050F03B
:102D9000407050F47F00EDB265F3092066F3070040
:102DA0006203885064030859002070BDD0F84003C6
:102DB0007047D0F80803C005C00D7047C0F8401236
:102DC0007047D0F80802C005C00D7047D0F808025F
:102DD000C0F3C030704738B505002800FFF7F1FF99
:102DE00004002800FFF7F2FF0419002C01D1012094
:102DF00000E00020C0B232BDC0F8C81F7047D0F854
:102E0000C80F7047C0F8C01FD0F8C00F7047C0F897
:102E1000881F7047D0F8880F7047C0F8801FD0F81F
:102E2000800F7047016851F000410160704770B534
:102E300006000124DFF8F4563000C0B255F8200037
:102E4000FFF7DDFF40071FD53000C0B255F8200066
:102E5000FFF7AFFF002810D03000C0B255F82000B7
:102E6000FFF7A4FFDFF8C8163200D2B28854012061
:102E7000DFF8C0163200D2B288540421F6B255F8F9
:102E80002600FFF7BFFF0FE03000C0B255F820006A
:102E9000FFF7C0FF800507D54FF40071F6B255F873
:102EA0002600FFF7BAFF00242000C0B270BD38B57D
:102EB00004001500C9B200290ED0102919D020290C
:102EC00024D030292FD031293AD0402945D050295B
:102ED00050D060295BD067E0DFF85C06A06001207D
:102EE0002073112060734FF48C70E08112202082D7
:102EF00060E0DFF84806A0600120207311206073B5
:102F000040F21D10E0816B20208253E0DFF8300694
:102F1000A06001202073112060734FF48E70E08157
:102F20006A20208246E0DFF81C06A06002202073A1
:102F30001120607340F21B10E0816920208239E08B
:102F4000DFF80406A060012020731120607340F2B6
:102F50001B10E081692020822CE0DFF8F005A060E2
:102F600001202073132060734FF48D70E08168207E
:102F700020821FE0DFF8D805A06001202073112017
:102F8000607340F21F10E0816D20208212E0DFF8B4
:102F9000C405A06001202073112060734FF48F706E
:102FA000E0816C20208205E0BA22DFF8AC15002019
:102FB000FFF78EFBEDB2002D0ED0102D19D0202D75
:102FC00024D0302D2FD0312D3AD0402D45D0502D4A
:102FD00050D0602D5BD067E0DFF85C0520600020FA
:102FE0002071112060714FF48C70E08112202082DA
:102FF00060E0DFF84805206000202071112060713A
:1030000040F21D10E0816B20208253E0DFF8300594
:10301000206000202071112060714FF48E70E081DB
:103020006A20208246E0DFF81C0520600120207124
:103030001120607140F21B10E0816920208239E08C
:10304000DFF804052060002020711120607140F23B
:103050001B10E081692020822CE0DFF8F004206062
:1030600000202071132060714FF48D70E081682082
:1030700020821FE0DFF8D80420600020207111209A
:10308000607140F21F10E0816D20208212E0DFF8B5
:10309000C404206000202071112060714FF48F70F3
:1030A000E0816C20208205E0FE22DFF8AC140020D5
:1030B000FFF70EFB31BD38B50400DFF87054C9B21C
:1030C0002000C0B255F82000FFF778FE2000C0B203
:1030D00055F82000FFF77FFE0028F7D031BD70B50E
:1030E00005000E00140006E031782800C0B2FFF79A
:1030F000E2FF641E761C002CF6D170BD38B50400CA
:103100000D0005E029782000C0B2FFF7D4FF6D1C48
:1031100028780028F6D131BD10B40022DFF814342D
:103120000200D2B29A5C002A0AD0DFF8042404001C
:10313000E4B2125D0A700021C0B21954012000E00F
:103140000020C0B210BC704770B505000C00DFF85D
:10315000DC632800C0B256F82000FFF75BFE400891
:10316000400001002800C0B256F82000FFF74FFED3
:103170002800C0B256F82000FFF74CFE30F00200E5
:1031800001002800C0B256F82000FFF740FE2800DA
:10319000C0B256F82000FFF73DFE30F020000100DD
:1031A0002800C0B256F82000FFF731FE2800C0B258
:1031B00056F82000FFF72EFE30F0400001002800F6
:1031C000C0B256F82000FFF722FE2800C0B256F821
:1031D0002000FFF71FFE30F0100001002800C0B2F1
:1031E00056F82000FFF713FE2800C0B256F8200062
:1031F000FFF710FE30F4807001002800C0B256F8CE
:103200002000FFF704FE2800C0B256F82000FFF7A8
:1032100001FE30F4806001002800C0B256F82000A2
:10322000FFF7F5FD002C0ED02800C0B256F82000A4
:10323000FFF7E5FD50F400700100EDB256F82500EF
:10324000FFF7E5FD0DE02800C0B256F82000FFF7BB
:10325000D6FD30F400700100EDB256F82500FFF7FE
:10326000D6FD70BD70B505000C00DFF8C062280007
:10327000C0B256F82000FFF7C2FD40084000010030
:103280002800C0B256F82000FFF7B6FD2800C0B2F3
:1032900056F82000FFF7B3FD30F0080001002800C9
:1032A000C0B256F82000FFF7A7FD2800C0B256F8BC
:1032B0002000FFF7A4FD30F0200001002800C0B27C
:1032C00056F82000FFF798FD2800C0B256F82000FD
:1032D000FFF795FD30F4807001002800C0B256F869
:1032E0002000FFF789FD2800C0B256F82000FFF744
:1032F00086FD30F4007001002800C0B256F82000AE
:10330000FFF77AFD2800C0B256F82000FFF777FDDE
:1033100030F4006001002800C0B256F82000FFF72A
:103320006BFD002C0ED02800C0B256F82000FFF72D
:1033300066FD50F004000100EDB256F82500FFF7DD
:103340005BFD0DE02800C0B256F82000FFF757FDE6
:1033500030F004000100EDB256F82500FFF74CFDF7
:1033600070BD2DE9F0412DED028BA8B005000E00D7
:10337000170028003900C9B20909C0B2884201D13A
:10338000012000E000201C00DFF8CC814FF4FB722C
:103390004146C0B2FFF79CF928002100C9B20909D3
:1033A000C0B2884201D1012000E0002040F2F712B3
:1033B0004146C0B2FFF78CF902A8142100F08AFB45
:1033C000342100220DF168084046FFF713FA4C2122
:1033D00000220DF11C084046FFF70CFA082080B2CD
:1033E00006FB00F65D48B0FBF6F85C4806FB1800EB
:1033F00000EE100AB8EE400B01EE106AB8EE411B69
:1034000080EE010BBFEEED0B10EE100B08EE100A74
:103410002200D2B23900C9B202A8FFF748FD082045
:103420001B909DF80D008DF870001AAA9DF80C10E5
:103430000298FFF79EFA06201B909DF815008DF864
:1034400070001AAA9DF814100498FFF792FA002051
:103450000790082008900820099002200B90002077
:103460000C900020129000201490304C2800C0B224
:1034700054F8200000F074FC39492A00D2B23820F8
:1034800042430A4407A92800C0B254F8200000F0C3
:1034900025FB2800C0B254F82000FFF7C3FC2A0027
:1034A000D2B20321BDF91600FFF724FCBDF91600C6
:1034B000FFF71CFC8DED008AB8F1010843462A0095
:1034C000D2B20321C0B2FFF7B5FBBDF91600FFF77A
:1034D0000DFC2A00D2B20321C0B2FFF740FCBDF9B7
:1034E0001800ADF800000320ADF8020001208DF8AF
:1034F000040007221B482900C9B250F82110684671
:1035000000F0CCFA00212800C0B2FFF7ABFE00218A
:103510002800C0B2FFF718FE28B0BDEC028BBDE852
:10352000F0810000889E081000000440E80702288F
:10353000541002285C100228000031400002314083
:10354000000531408008314080063140000731409D
:103550000001314080013140749B081000B4C40464
:10356000140A0228CC0702280CB430B583B00A46EE
:1035700006A90291044600250194009502AB01A919
:10358000084878441E30FCF77EFD019A157000282B
:103590004EBF04460198041B204603B030BC5DF8C2
:1035A0000CFB00BF1FDAFFFF82688918816003E00F
:1035B00082684169521A8260816842699142F7D2F9
:1035C0007047C2688918C16003E0C2684169521A35
:1035D000C260C16842699142F7D2704770B5040079
:1035E000002C01D0012000E000205422DFF8FC1361
:1035F000C0B2FFF76DF80025207850F00100207070
:103600000020A0600020E0606069206160780028F0
:1036100003D0022810D007D315E061690022666844
:103620003000FFF7E7F80EE06169490000226668A4
:103630003000FFF7DFF806E0616989000022666864
:103640003000FFF7D7F8002020702800C0B270BD0E
:1036500010B50400002C01D0012000E000207022F1
:10366000DFF88813C0B2FFF733F860692169401AA8
:1036700010BD2DE9F84305001600002D01D00120F2
:1036800000E000200C00AA22DFF86013C0B2FFF7B0
:103690001FF800270020002C01D10327B5E028786F
:1036A00010F0050F01D00427AFE0287850F0040097
:1036B00028702869B042C0F0A380D5F81480A868AB
:1036C000B8EB0008B04567D26878002803D002281C
:1036D00041D01FD390E0424621006868AB6800EB00
:1036E00003094846FDF7DAFC41462800FFF75CFF76
:1036F000B6EB080204EB08016868AB6800EB030452
:103700002000FDF7CBFCB6EB080841462800FFF788
:103710004BFF71E05FEA480221006868AB6800EB8C
:1037200043094846FDF7BAFC41462800FFF73CFF35
:10373000B6EB0802520004EB48016868AB6800EB86
:1037400043042000FDF7AAFCB6EB08084146280018
:10375000FFF72AFF50E05FEA880221006868AB6843
:1037600000EB83094846FDF799FC41462800FFF726
:103770001BFFB6EB0802920004EB88016868AB6897
:1037800000EB83042000FDF789FCB6EB08084146F6
:103790002800FFF709FF2FE06878002803D00228EF
:1037A0001DD00ED328E0320021006868AB6800EB22
:1037B00003042000FDF772FC31002800FFF7F4FE3F
:1037C0001AE0720021006868AB6800EB4304200037
:1037D000FDF764FC31002800FFF7E6FE0CE0B200C4
:1037E00021006868AB6800EB83042000FDF756FCFD
:1037F00031002800FFF7D8FE2869861B2E6100E003
:103800000527287810F0FB0028703800C0B2BDE80A
:10381000F2832DE9F04705000E001F00002D01D0B6
:10382000012000E000201400DFF8C08140F25B12AC
:103830004146C0B2FEF74CFF002C01D0012000E051
:1038400000204FF4AE724146C0B2FEF741FF5FF078
:10385000000800200020002E02D15FF003088BE05A
:10386000297811F0030F03D020605FF006089CE078
:103870002800FFF7EDFE2168884209D220605FF042
:103880000708002804D1287810F0F70028708CE091
:10389000287850F008002870D5F81490E868B9EB43
:1038A00000092068814522D36878002803D00228C7
:1038B00013D008D35CE022686868E96801443000EE
:1038C000FDF7ECFB54E0226852006868E96800EB01
:1038D00041013000FDF7E2FB4AE02268920068688F
:1038E000E96800EB81013000FDF7D8FB40E0687823
:1038F000002803D0022827D011D339E04A4668684F
:10390000E9680144B2465046FDF7C8FB2268B2EBB5
:10391000090269684E443000FDF7C0FB28E05FEA09
:1039200049026868E96800EB4101B2465046FDF77C
:10393000B5FB2268B2EB09025200696806EB490642
:103940003000FDF7ABFB13E05FEA89026868E968C5
:1039500000EB8101B2465046FDF7A0FB2268B2EBB6
:1039600009029200696806EB89063000FDF796FBB4
:10397000287810F0F7002870FFB2002F15D12878B2
:103980000B2802D15FF002080FE0287850F0020007
:10399000287021682800FFF714FE29692068411863
:1039A0002961287810F0FD0028704046C0B2BDE8BB
:1039B000F087F8B504000E0017001D00002C01D0A0
:1039C000012000E000204FF407720849C0B2FEF762
:1039D0007FFE002067600021217066700021A160D9
:1039E0000021E16025616561C0B2F2BD549A081002
:1039F000010009B2002908D4012210F01F018A40F9
:103A00001B4900B2400941F820207047010009B26B
:103A1000002908D4012210F01F018A40154900B284
:103A2000400941F820207047020012B2002A04D455
:103A30004901114A00B2115407E049010F4A00B28E
:103A400010F00F00104400F8041C7047002800D14B
:103A500062B60B480168491C0160704772B608499C
:103A60000868002802D00868401E0860086870478F
:103A700000E100E080E200E000E400E018ED00E09A
:103A80009C10022880B5FFF7E9FFFEF781FB01BD1E
:103A900080B5C9B200B2FFF7C7FF01BD70B5040021
:103AA0000D001600200000F0A3F92900B4F9000071
:103AB00000F0DDF93100C9B2B4F90200FFF7E8FF08
:103AC000B4F90200FFF7A2FFB4F90200FFF790FF7C
:103AD00070BD0000002200F0E1B900002DE9F44FB4
:103AE000DFF8D822DFF8D8321B68DFF8D842246824
:103AF000DFF8D4522D68DFF8D4623668DFF8D07270
:103B00003F68DFF8D0C2DCF800C0DFF8CCE2DEF8B6
:103B100000E0DFF8C882D8F80080DFF8C492D9F856
:103B20000090DFF8C0A2DAF800A0002800F01581AC
:103B3000002900F012810A68022A06D191F8262095
:103B4000002A02D15FF0000B03E0D1F804B0BBF112
:103B5000010B91F82420002A01D0012200E000226C
:103B600062F3104333F440436BF30303022262F326
:103B7000196303600A7812F0030262F319640464A3
:103B800091F82520002A01D0012200E0002262F3F2
:103B90008615CA7E002A01D0012200E0002262F3CD
:103BA0008A254A7E002A01D0012200E0002262F329
:103BB00008258A7E002A01D0012200E0002262F35B
:103BC00049258A6B521E12F00F0262F313450A69EF
:103BD000521E12F00702ED08ED0015434A6962F328
:103BE00004154A69520862F3451585640A7B002A68
:103BF00001D0012200E0002262F308260A7E002A9A
:103C000001D0012200E0002262F349268A68521E98
:103C100012F01F02760976011643C0F800630A7F8E
:103C200002F0FF023F0A3F02174391F8202002F002
:103C3000FF0262F31747C0F8107391F82720002A9B
:103C400001D0012200E0002262F3082C0A69521E12
:103C500012F007025FEADC0C5FEACC0C52EA0C0CB3
:103C60004A6962F3041C4A69520862F3451CC0F8B1
:103C700044C00A7B002A01D0012200E0002262F346
:103C8000082E8A68521E12F01F025FEA5E1E5FEA6B
:103C90004E1E52EA0E0E0A68012A01D1012200E0EE
:103CA000002262F3104EC0F800E291F83C2002F0CE
:103CB000FF025FEA18285FEA082852EA0808C0F8FD
:103CC000048391F82820002A01D0012200E000227C
:103CD00062F35969CA6A012A01D1012200E0002277
:103CE00062F318694A6B012A01D1012300E0002325
:103CF000009A63F3104991F8303003F0FF035FEA54
:103D000019295FEA092953EA0909C0F8509091F886
:103D1000443003F0FF035FEA1A2A5FEA0A2A53EAF3
:103D20000A0AC0F804A28B6CC0F8883F096CC0F87E
:103D3000C81F002A10D00020506000201060002012
:103D400090600020D060002010620020D06200202F
:103D50001063DFF89400506300221000BDE8F28F7A
:103D6000DFF8881001605FF4401101640021816474
:103D700040F20711C0F800130022C0F8042300220B
:103D8000C0F8102300224264C0F800120021C0F8DD
:103D90000412002101650021C0F8C81E0021C0F8EE
:103DA000881E0021C0F8C81F0021C0F8881F00210C
:103DB000C0F8081F0021C0F8481F70470160AA0022
:103DC000F89E0810FC9E0810009F0810049F081021
:103DD000089F08100C9F0810109F0810149F0810CF
:103DE000189F08101C9F0810EFCDAB000F000003B8
:103DF00030B40021234A1368234A1468002832D0C3
:103E0000224A1568C5F303250E2D0FD01268C2F3A0
:103E100003220D2A28D1827812F00F0224092401EE
:103E200014430279002A15D0012214E0827812F09E
:103E30000F021B091B0113430279002A01D0012242
:103E400000E0002262F3DF73114AB0F9000042F88B
:103E5000203009E0002262F3DF740E4AB0F900005E
:103E600042F8204000E00649080030BC70470A4B89
:103E70001A68002A03D01A6800B242F8201070476E
:103E800001005600209F0810249F081000002040C9
:103E900000A0204000C02040EC06022800B500BF72
:103EA000130096469446103928BFA0E80C50FAD863
:103EB0005FEA417C28BF0CC048BF40F8042BC9070B
:103EC00028BF20F8022B48BF00F8012B00BD0000DE
:103ED000D0F80803C005C00D704710F541710A689D
:103EE00052F480320A6010F541710A6832F480326F
:103EF0000A60D0F804037047C0F840127047D0F849
:103F00000802C005C00D7047D0F80802C0F3C030E9
:103F1000704738B505002800FFF7F1FF04002800BE
:103F2000FFF7F2FF0419002C01D1012000E000206E
:103F3000C0B232BD0068C0F38130002801D18020BA
:103F400000E040207047016851F000410160704777
:103F50002030026861F39B620260704780B5FFF712
:103F6000B7FF02BD80B5FFF7B8FF01BD022801D33E
:103F7000012010E00B00DBB2042B01DB01200AE082
:103F8000DFF8283703EB8000C9B2405C824201D3DE
:103F9000012000E000207047F8B504000F00150074
:103FA0001E00022C01D301202AE02A003900C9B2E8
:103FB0002000FFF7DBFF012801D1012020E0069857
:103FC0003900C9B202291ED1B6F5803F19D2202886
:103FD00017D24FF4C052DFF8D81663030B4403EB3B
:103FE000850313441F6866F317271F606403214489
:103FF00001EB850111440A6860F3C7020A600020E2
:10400000F2BD0120FCE7FFB2032F1FD1B6F1807F84
:104010001AD2202818D24FF4E052DFF89416630326
:104020000B4403EB850313441F6807F0FF0757EAAF
:1040300006271F606403214401EB850111440A68CF
:1040400060F3C7020A60DAE70120D9E70120D7E769
:1040500000B20012C0B27047F8B505000E0017009C
:10406000280000B2FFF7F4FF04002000C0B20228CD
:1040700001D3012024E03A003100C9B22000C0B2CF
:10408000FFF774FF012801D1012019E0DFF82016A5
:104090002000C0B2400308442A00D2B200EB8200E4
:1040A000D0F8000CF6B266F3092067F30700E4B21B
:1040B00064032144EDB201EB8501C1F8000C00203E
:1040C000F2BD70B504000D001600022C01D30120D2
:1040D0001DE032002900C9B22000FFF747FF012888
:1040E00001D1012013E0DFF8C8156003085850F033
:1040F000004050F0407050F47F00EDB265F30920AD
:1041000066F307006203885064030859002070BDFD
:104110000100C020C9B2002905D0022907D004D36C
:10412000032906D006E0122004E0622002E07A2093
:1041300000E01A20C0B270470100C020C9B20029B7
:1041400005D0022907D004D3032906D006E01120A8
:1041500004E0612002E0792000E01920C0B270473D
:104160000100C020C9B2002905D0022907D004D31C
:10417000032906D006E0102004E0602002E0782049
:1041800000E01820C0B270470100C020C9B2002969
:104190000BD002290DD00AD304290ED00BD3062947
:1041A0000FD00CD307290ED00EE013200CE0142002
:1041B0000AE0632008E0642006E07B2004E0292078
:1041C00002E01B2000E01C20C0B27047010000206C
:1041D000C9B2002905D0022907D004D3032906D08B
:1041E00006E0132004E0132002E0132000E0132077
:1041F000C0B2704701000020C9B2002905D00229D1
:1042000007D004D3032906D006E0132004E01320CE
:1042100002E0132000E01320C0B27047010000202C
:10422000C9B2002905D0022907D004D3032906D03A
:1042300006E0132004E0132002E0132000E0132026
:10424000C0B2704701000020C9B200290BD002297A
:104250000DD00AD304290ED00BD306290FD00CD3CE
:1042600007290ED00EE013200CE013200AE01320E3
:1042700008E0132006E0132004E0132002E01320DE
:1042800000E01320C0B27047C9B2082902D010293B
:1042900046D096E0DFF808160200D2B251F822208C
:1042A000126832F440420300DBB251F823301A6046
:1042B0000200D2B251F82220D2F800225209520153
:1042C0000300DBB251F82330C3F800220200D2B25F
:1042D00051F82220D2F8002252F007020300DBB28C
:1042E00051F82330C3F800220200D2B251F8222044
:1042F000D2F80023520952010300DBB251F82330F7
:10430000C3F800230200D2B251F82220D2F80023D1
:1043100052F00702C0B251F82000C0F8002350E06C
:10432000DFF87C150200D2B251F82220126832F474
:1043300040420300DBB251F823301A600200D2B2CF
:1043400051F82220126852F480420300DBB251F887
:1043500023301A600200D2B251F82220D2F8002293
:10436000520952010300DBB251F82330C3F8002296
:104370000200D2B251F82220D2F8002252F00F02ED
:104380000300DBB251F82330C3F800220200D2B29E
:1043900051F82220D2F80023520952010300DBB267
:1043A00051F82330C3F800230200D2B251F8222082
:1043B000D2F8002352F00F02C0B251F82000C0F82A
:1043C00000237047F8B504000E0008212000C0B299
:1043D000FFF75AFFDFF8CC542000C0B2285C082851
:1043E0000FD02000C0B2285CC010DFF8BC1411EB65
:1043F000C01101202200D2B2AA5C12F00702904044
:104400000860DFF89C74F6B231002000C0B257F8A3
:104410002000FFF771FD2000C0B257F82000FFF721
:1044200089FD06002000C0B257F82000FFF767FDA5
:104430008642F0D02000C0B257F82000FFF769FD97
:104440000028F7D02000C0B2285C08280ED0200039
:10445000C0B2285CC010DFF8541411EBC011012069
:10446000E4B22A5D12F0070290400860F1BDF8B591
:1044700004000E0010212000C0B2FFF705FFDFF896
:1044800024542000C0B2285C08280FD02000C0B2FD
:10449000285CC010DFF8101411EBC01101202200BD
:1044A000D2B2AA5C12F0070290400860DFF8F07305
:1044B000B6B231002000C0B257F82000FFF71CFD53
:1044C0002000C0B257F82000FFF734FD060020009E
:1044D000C0B257F82000FFF712FD8642F0D020004E
:1044E000C0B257F82000FFF714FD0028F7D02000D5
:1044F000C0B2285C08280ED02000C0B2285CC010D2
:10450000DFF8A81311EBC0110120E4B22A5D12F00C
:10451000070290400860F1BD2DE9F84307000D0047
:10452000140010213800C0B2FFF7AEFEDFF874634C
:104530003800C0B2305C08280FD03800C0B2305C00
:10454000C010DFF8641311EBC01101203A00D2B2A1
:10455000B25C12F0070290400860DFF844832988BB
:104560003800C0B258F82000FFF7C6FCAD1C380078
:10457000C0B258F82000FFF7DDFC81463800C0B219
:1045800058F82000FFF7BBFC8145F0D0641E002CDA
:10459000E3D13800C0B258F82000FFF7BAFC002879
:1045A000F7D03800C0B2305C08280ED03800C0B256
:1045B000305CC010DFF8F41211EBC0110120FFB223
:1045C000F25D12F0070290400860BDE8F1832DE92A
:1045D000F04104000F00160008212000C0B2FFF7D0
:1045E00053FEDFF8C0522000C0B2285C08280FD06C
:1045F0002000C0B2285CC010DFF8AC1211EBC01173
:1046000001202200D2B2AA5C12F00702904008609A
:10461000DFF88C82FFB239002000C0B258F82000C9
:10462000FFF76AFC2000C0B258F82000FFF782FCB8
:1046300007002000C0B258F82000FFF760FC874256
:10464000F0D0F6B231002000C0B258F82000FFF7D9
:1046500053FC2000C0B258F82000FFF76BFC0600A6
:104660002000C0B258F82000FFF749FC8642F0D085
:104670002000C0B258F82000FFF74BFC0028F7D00C
:104680002000C0B2285C08280ED02000C0B2285CF0
:10469000C010DFF8181211EBC0110120E4B22A5D3E
:1046A00012F0070290400860BDE8F081889E081073
:1046B00000000440F8B504000D000020082120008F
:1046C000C0B2FFF7E1FD774E2000C0B2305C082891
:1046D0000ED02000C0B2305CC010734911EBC01185
:1046E00001202200D2B2B25C12F0070290400860B2
:1046F0006B4F2000C0B257F82000FFF72FFC0028B6
:1047000005D02000C0B257F82000FFF72BFCEDB217
:1047100029002000C0B257F82000FFF7EDFB200071
:10472000C0B257F82000FFF719FC0028F7D020008E
:10473000C0B257F82000FFF715FC00212000C0B2DE
:1047400057F82000FFF7D8FB2000C0B257F8200030
:10475000FFF7DFFB0028F7D02000C0B257F8200099
:10476000FFF7FCFB0028F7D02000C0B257F820006C
:10477000D0F840032100C9B2715C08290DD0210096
:10478000C9B2715CC910494A12EBC1120121E4B2ED
:10479000335D13F0070399401160C0B2F2BD2DE9FB
:1047A000F84380460D0016001C0008214046C0B2A8
:1047B000FFF76AFD3B4F4046C0B2385C08280ED078
:1047C0004046C0B2385CC010374911EBC01101201F
:1047D0004246D2B2BA5C12F0070290400860DFF89D
:1047E000C0904046C0B259F82000FFF7B7FB002840
:1047F00005D04046C0B259F82000FFF7B3FBEDB238
:1048000029004046C0B259F82000FFF775FB40462A
:10481000C0B259F82000FFF7A1FB0028F7D04046AE
:10482000C0B259F82000FFF79DFB00214046C0B2FE
:1048300059F82000FFF760FB4046C0B259F820004D
:10484000FFF767FB0028F7D04046C0B259F82000B8
:10485000FFF784FB0028F7D04046C0B259F820008B
:10486000D0F840033070761C641E002CDDD1404629
:10487000C0B2385C08280FD04046C0B2385CC010C7
:104880000A4911EBC01101205FFA88F817F80820D7
:1048900012F0070290400860BDE8F18300000000BC
:1048A000BC070228AC100228040031400800314047
:1048B0002DE9F84F2DED028B9EB006000F009946B2
:1048C000042080B202FB00F2A848B0FBF2F8A7482F
:1048D00002FB180000EE100AB8EE400B01EE102AA1
:1048E000B8EE411B80EE010BBFEEED0B10EE100B8E
:1048F00008EE100A3421002201AC2000FDF77AFFF7
:104900003C2100220EAC2000FDF774FF3000494628
:10491000C0B2C9B2884201D1012000E000202A9D26
:10492000DFF84CA24FF470725146C0B2FDF7D0FED2
:1049300048462900C0B2C9B2884201D1012000E036
:1049400000202B9C40F2C1325146C0B2FDF7C0FEA0
:10495000062002902800C0B2FFF74CFC8DF80C0036
:104960002800C0B2FFF7E8FB82465FF0080B280082
:10497000C0B2FFF7E1FB7F4D01AA9AFBFBF10BFBF5
:1049800011AA5146C0B2C010C0012844FDF7F1FF82
:10499000062002904846C0B2FFF718FC8DF80C00C4
:1049A0004846C0B2FFF7B4FB82465FF0080B4846AA
:1049B000C0B2FFF7ADFB01AA9AFBFBF10BFB11AAFA
:1049C0005146C0B2C010C0012844FDF7D2FF2000FC
:1049D000C0B204281ED0082002902000C0B2FFF709
:1049E0001DFC8DF80C002000C0B2FFF7B9FB81461A
:1049F0005FF0080A2000C0B2FFF7B2FB01AA99FBE2
:104A0000FAF10AFB11994946C0B2C010C00128440E
:104A1000FDF7AFFF2C9C2000C0B208281ED0062056
:104A200002902000C0B2FFF70DFC8DF80C002000B2
:104A3000C0B2FFF7A9FB81465FF0080A2000C0B2B0
:104A4000FFF7A2FB01AA99FBFAF10AFB119949466B
:104A5000C0B2C010C0012844FDF78BFF3000C0B2C7
:104A6000032803D23000C0B2401C00E00020320016
:104A7000D2B2D21D032110F58F7000B2FFF7ECFA0D
:104A80003000C0B2032803D23000C0B2401C00E0A6
:104A9000002010F58F7000B2FFF7DAFA8DED008A72
:104AA000B8F1010843463200D2B2D21D0321C0B290
:104AB000FFF772FA3000C0B2032803D23000C0B250
:104AC000401C00E0002010F58F7000B2FFF7C0FA24
:104AD0003200D2B2D21D0321C0B2FFF7F2FAFFB208
:104AE000002F05D0022F09D005D3032F09D00AE0EB
:104AF0000020109007E00120109004E002201090A8
:104B000001E00320109001200E9000200F9004205F
:104B10001190082012900820139001208DF8500069
:104B200001208DF85300104D00220EA93000C0B2B4
:104B300055F8200000F020F800213000C0B255F8F0
:104B40002000FFF705FA3000C0B255F82000FFF74B
:104B5000FAF90448F6B284551EB0BDEC028BBDE8EC
:104B6000F18F0000AC100228BC07022800B4C40476
:104B70002C9B0810000031402DE9F041DFF8D031C6
:104B80001C00DFF8D051D5F800C0DFF8CC512D68FB
:104B9000DFF8C8613668DFF8C8713F685FF0000E63
:104BA0005FF0000E002800F0D080002900F0CD80DA
:104BB0004C68002C01D18C6805E04C68022C01D1B6
:104BC000002400E00224D1F810E0D1F81480C6459A
:104BD00002D3D1F810E001E0D1F814E0BEF1090FE2
:104BE00008D23CF4404C91F82130002B12D05CF4F8
:104BF000807C11E0BEF1110F03D2012363F38F3CDF
:104C0000F1E7BEF1210F03D2022363F38F3CEAE701
:104C100018009BE03CF4807CCB685B1E13F00F0314
:104C20005FEA1C1C5FEA0C1C53EA0C0C012363F3C3
:104C3000196CC0F800C00B7F002B01D0002300E0EE
:104C4000012363F300054B681B0963F34105CB7E29
:104C500063F304154B7E63F345150B68012B01D1FB
:104C6000012300E0002363F3DF7523005B0863F397
:104C7000820564F3C3054B7F63F308258B7F63F3E1
:104C80004925CB7F63F38A2591F8203063F3CB2548
:104C90000B7913F0030363F3196505620B7E63F36D
:104CA00008278B7E63F349270B695B1E13F01F03F4
:104CB0007F097F011F43C0F8007391F8243003F08F
:104CC000FF0310F5417425682D0A2D022B43236044
:104CD0000B7E63F308264B695B1E13F01F037609F6
:104CE00076011E43C0F8006291F82C3003F0FF03F8
:104CF00010F5017425682D0A2D022B4323600B6BE0
:104D0000C0F8883F8B6AC0F8C83F91F8383010F57A
:104D10007064256863F34925256091F8391010F512
:104D200074631C6861F3CB241C600021C0F8C81EAA
:104D3000002A09D000201060002090610020D0607F
:104D40000020D0610748106200242000BDE8F081F7
:104D50000140AA00E89E0810EC9E0810F09E081082
:104D6000F49E0810EFCDAB00DFF86C17C0B20860FE
:104D7000704710B50100DFF81006007800280CD14C
:104D80000820DFF808261060C9B20120FFF71AFBDF
:104D90000820DFF84817086019E0DFF8F40508225A
:104DA00002601022DFF8E4351A60DFF8E8450422DB
:104DB0002260022202600800C0B2FFF7D5FF022085
:104DC0002060082020601020DFF81017086010BD58
:104DD00010B50100DFF8B0050078002804D1C9B291
:104DE0000120FFF7EFFA11E0DFF8A40508220260C6
:104DF000DFF8A04504222260022202600800C0B24F
:104E0000FFF7B2FF022020600820206010BD70B5BF
:104E10000400DFF874050078002805D1210089B26C
:104E20000120FFF724FB1BE0DFF8646508203060F9
:104E3000DFF860550420286002203060200080B236
:104E4000000AC0B2FFF790FF022028600220306005
:104E50002000C0B2FFF788FF0220286008202860E9
:104E600070BDF8B504000D00DFF81C0500780028BF
:104E700005D12A0021000120FFF74EFB21E0DFF8D9
:104E8000106508203060DFF80C750420386012E0EF
:104E900002203060208880B2000AC0B2FFF764FFB1
:104EA00002203860022030602088C0B2FFF75CFF2B
:104EB00002203860A41C2800451E0028E8D10820E4
:104EC0003860F1BD2DE9F047060015001F00DFF83E
:104ED00010863000B8F8002080B2904201D2012044
:104EE00000E000200C00DFF8FC9540F24912494632
:104EF000C0B2FDF7EDFBDFF8F0A52000BAF8001016
:104F000080B2884201D2012000E000204FF4A57257
:104F10004946C0B2FDF7DCFB2800B8F8001080B2AB
:104F2000884201D2012000E0002040F24B124946A5
:104F3000C0B2FDF7CDFB3800BAF8001080B288424D
:104F400001D2012000E000204FF4A6724946C0B211
:104F5000FDF7BEFB2A20FFF70CFF300080B2FFF701
:104F600056FF280080B2FFF752FF2B20FFF701FF0A
:104F7000200080B2FFF74BFF380080B2FFF747FFF9
:104F80002C20FFF7F6FEBDE8F08700B585B0684637
:104F9000FDF7CCFB0120ADF80000DFF844050088E8
:104FA000ADF80200DFF840050088ADF80400DFF836
:104FB00040050078002803D002280FD007D30DE069
:104FC00006208DF8060008208DF8070006E008206E
:104FD0008DF8060010208DF80700FFE70FF2FD2086
:104FE00003900FF2110004906846FDF7AFFB05B087
:104FF00000BD00002DE9F041DFF8E45428884000AE
:1050000000F042FC040000200020DFF87C633078D0
:10501000002803D10820DFF878130860DFF8C8748F
:105020003888431E9BB22888421E92B2002100207D
:10503000FFF748FF002007E0DFF8B01409880200FE
:1050400092B224F81210401C01002A8889B29142C1
:10505000F2D35FF0000805E029882000FFF701FF88
:1050600018F101084046398880B28842F4D330787C
:10507000002803D10820DFF81C130860200000F08E
:105080000CFCBDE8F081DFF86C140870087800288B
:10509000012803D9801E01280AD912E0F020DFF888
:1050A000401408804FF4A070DFF83C14088008E03A
:1050B0004FF4A070DFF828140880F020DFF82814DF
:1050C00008807047DFF830241080DFF8200401806A
:1050D0007047F8B5D8B005000E0014002800DFF8BE
:1050E0000014098880B2884201D2012000E000202B
:1050F000DFF8F07340F25D223900C0B2FDF7E8FA44
:105100003000DFF8E413098880B2884201D2012020
:1051100000E0002040F25E223900C0B2FDF7D8FA6C
:1051200000200020DFF860723878002803D10820C2
:10513000DFF85C120860DFF8B8030078002804D0BC
:10514000022800F0C18047D3BEE0F31D9BB26A1D68
:1051500092B2310089B2280080B2FFF7B3FE00207E
:1051600000E0401C0100C9B2062930DA0621DFF850
:105170008C232300DBB24B431A440300DBB21A44F6
:1051800012F8C02C00230CE040AD1E00F6B24E43D6
:1051900056FA80F6DFF854C3BCF800C025F816C0F4
:1051A00011E01D00EDB2082DDBDAD507ECD540ADDE
:1051B0001E00F6B24E4356FA80F6DFF83CC3BCF848
:1051C00000C025F816C0D2B252085B1CE9E73021B6
:1051D00040A8FFF746FE77E016F10F039BB2EA1DE9
:1051E00092B2310089B2280080B2FFF76BFE002036
:1051F00000E0401C0100C9B2082960DADFF8002392
:105200002100C9B2090111440300DBB21944B1F510
:10521000007109782300DBB21B011A440300DBB2E2
:105220001A44B2F5FC72127800231DE06D461E0090
:10523000F6B2F60056FA80F6DFF8B0C2BCF800C04D
:1052400025F816C00DE0CD07F0D56D461E00F6B26C
:10525000F60056FA80F6DFF8A0C2BCF800C025F8C8
:1052600016C0C9B249085B1C1D00EDB2082DEADB6F
:1052700000210DE06B460D00EDB2ED0055FA80F512
:1052800003EB4503DFF864522D88A3F8805012E049
:105290000B00DBB2082BACDAD307EBD56B460D0065
:1052A000EDB2ED0055FA80F503EB4503DFF8485207
:1052B0002D88A3F88050D2B25208491CE8E780211B
:1052C0006846FFF7CEFDFFE73878002802D10820B6
:1052D0003049086059B0F0BD00000000F8B5040086
:1052E0000E0015002000DFF8F811098880B288420E
:1052F00001D2012000E00020DFF8E87140F2BA227C
:105300003900C0B2FDF7E4F93000DFF8DC1109889C
:1053100080B2884201D2012000E0002040F2BB228E
:105320003900C0B2FDF7D4F900270EE00CE03800D8
:1053300080B22A5C310089B2380080B2C00010FA15
:1053400084F080B2FFF7C5FE7F1C380080B2285C75
:10535000002817D0DFF8AC010078002803D002281D
:10536000E4D0E4D3F0E7380080B22A5C310089B29F
:105370003B009BB20620434313FA84F080B2FFF750
:10538000A8FEE1E7F1BD0000DC100228040B31406B
:1053900004063140080631402DE9F0412DED028B25
:1053A00086B00500B0EE408B16001F0028004C4A66
:1053B000128880B2904201D2012000E000200C004F
:1053C000DFF8208140F229324146C0B2FDF780F972
:1053D0002000DFF88014098880B2884201D20120C1
:1053E00000E0002040F22A324146C0B2FDF770F9D9
:1053F0003000C0B2002801D0012000E0002040F2BF
:105400002B324146C0B2FDF763F93000C0B2092823
:1054100001DA012000E000204FF44B724146C0B297
:10542000FDF756F93800C0B2002801D0012000E095
:10543000002040F22D324146C0B2FDF749F9380054
:10544000C0B2072801DA012000E0002040F22E322D
:105450004146C0B2FDF73CF9B7EE000B1121002226
:10546000E8464046FDF7C6F93800C0B250FA86F16A
:10547000891C2022E8464046FDF7BCF904E0B2EE64
:10548000042B20EE020B761E3000C0B20028F6D1AD
:10549000BDEEC81B11EE100ABDEEC01B11EE101AB6
:1054A00090FBF1F001EE100AB8EEC11B01EE408B4B
:1054B0003900C9B2B0EE480B684600F0F1F96A460F
:1054C000210089B2280080B2FFF708FF06B0BDECCA
:1054D000028BBDE8F081000080063140080B3140AE
:1054E000040802289C9A0810060802280A080228C4
:1054F0000F080228DD10022808080228EC85081091
:10550000EC7108100F080228FEB5C0B2002830D197
:105510000020D1490870D54CB4202070D44D5820BB
:105520002870D44E6320307008200290042001902F
:10553000012000900123D04A00210120FFF7B8F993
:10554000032300220121B32000F0EDFA03230022FF
:105550000121207800F0E7FA0323012201213078AD
:1055600000F0E1FA032301220121287800F0DBFAA0
:105570005FE00120B8490870BC48B3210170BC4C01
:1055800058212170BB4D6321297003230022012182
:10559000007800F0C8FA032300220121207800F0EF
:1055A000C2FA032301220121287800F0BCFA032368
:1055B00000220121622000F0B6FA0323002201211B
:1055C000612000F0B0FA032301220121B42000F091
:1055D000AAFA032301220121682000F0A4FA032380
:1055E00001220121692000F09EFA032301220121FA
:1055F0006A2000F098FA0323012201216B2000F0B9
:1056000092FA0323012201216C2000F08CFA03237B
:10561000012201216D2000F086FA032301220121DD
:105620006E2000F080FA0323012201216F2000F098
:105630007AFA924C2078FFF726FD8A4801888A483A
:105640000088FFF73FFD8E4D01268948017811F053
:10565000070116FA01F10078C01015EBC0100160C7
:10566000824F387810F0070016FA00F03978C91028
:10567000844A12EBC1121060052000F04DFB38780F
:1056800010F0070086403878C01015EBC0152E606A
:10569000782000F041FB704D2878002802D10820C6
:1056A0006E4908601120FFF764FB782000F034FB9E
:1056B0003620FFF75EFB2078002805D002280BD0AB
:1056C00006D303280CD00EE00020FFF781FB0AE090
:1056D000C020FFF77DFB06E07020FFF779FB02E0BA
:1056E000A020FFF775FB3A20FFF743FB0520FFF7EB
:1056F0006FFBB220FFF73DFB0C20FFF769FB0C208E
:10570000FFF766FB0020FFF763FB3320FFF760FB2A
:105710003320FFF75DFBB720FFF72BFB3520FFF7AA
:1057200057FBBB20FFF725FB2920FFF751FBC220C9
:10573000FFF71FFB0120FFF74BFBC320FFF719FB0F
:105740001920FFF745FBC420FFF713FB2020FFF7CC
:105750003FFBC520FFF70DFB1A20FFF739FBC620E2
:10576000FFF707FB1F20FFF733FBD020FFF701FBFC
:10577000A420FFF72DFBA120FFF72AFBE020FFF775
:10578000F8FAD020FFF724FB0820FFF721FB0E20BA
:10579000FFF71EFB0920FFF71BFB0920FFF718FB93
:1057A0000520FFF715FB3120FFF712FB3320FFF731
:1057B0000FFB4820FFF70CFB1720FFF709FB142015
:1057C000FFF706FB1520FFF703FB3120FFF700FB77
:1057D0003420FFF7FDFAE120FFF7CBFAD020FFF7E6
:1057E000F7FA0820FFF7F4FA0E20FFF7F1FA092084
:1057F000FFF7EEFA0920FFF7EBFA1520FFF7E8FABA
:105800003120FFF7E5FA3320FFF7E2FA4820FFF7EF
:10581000DFFA1720FFF7DCFA1420FFF7D9FA15207A
:10582000FFF7D6FA3120FFF7D3FA3420FFF7D0FA8A
:105830002120FFF79EFA2920FFF79BFA28780028FD
:1058400002D1082006490860FFF7D4FBFFF79DFB53
:10585000F7BD000006080228DC10022804063140CB
:10586000080631400A080228080802281008022801
:10587000110802281208022880C3C901DD1002287D
:10588000080031400400314010B500F0D5FA0400A2
:1058900008BFFBF795FE204610BD00F06BBB000073
:1058A000F8B52DED028B96B00400B0EE408B0D00E4
:1058B000002C01D0012000E000204FF4F172DFF84D
:1058C0007411C0B2FCF704FF002000202900002C56
:1058D00071D0BDEEC80B10EE100A9FED541BB4EE54
:1058E000418BF1EE10FA09D52D222270641C00EED6
:1058F000100AB8EEC00B38EE400B13E09FED4B1BC7
:10590000B4EE418BF1EE10FAF1D130202070601C22
:105910002E210170401C302101704CE0B2EE042BAE
:1059200020EE020B0A00511ED2B2002AF6D1BDEEC3
:10593000C00B10EE101A00220A2390FBF3F603FBB3
:10594000160309AE1700FFB246F82730521C0A238F
:1059500090FBF3F00028EFD11000C0B200281ED059
:105960002000441C09AB1600F6B203EB860353F883
:10597000043C002B07D409AB1600F6B203EB8603F8
:1059800053F8043C07E009AB1600F6B203EB8603BC
:1059900053F8043C5B4230330370521EDCE72800AE
:1059A000C0B2002807D000202E222270621C0029DD
:1059B00014D13020107016B0BDEC028BF1BD0A235B
:1059C00091FBF3F403FB14136C460600F6B244F8A3
:1059D0002630401C0A2391FBF3F16D1E2B00DBB235
:1059E000002BECD10100C9B20029E4D011004A1CFF
:1059F0006B460400E4B203EB840353F8043C002B31
:105A000007D46B460400E4B203EB840353F8043C70
:105A100007E06B460400E4B203EB840353F8043C54
:105A20005B4230330B70401EDCE7000000000000DA
:105A300000000000709908100069C84010F00100D3
:105A40007047012212FA01F181607047012212FAB7
:105A500001F14160704710B48900436C0F248C4001
:105A6000A34312F00F0212FA01F11943416410BC72
:105A7000704780B5C9B200290ED00100C9B2082212
:105A800091FBF2F302FB1311494AC0B2C010C001EE
:105A90001044FFF7D6FF0DE00100C9B2082291FBC8
:105AA000F2F302FB1311424AC0B2C010C00110440D
:105AB000FFF7CCFF01BD80B50100C9B2082291FB00
:105AC000F2F302FB13113A4AC0B2C010C0011044F5
:105AD000FFF7B2FFC0B202BD10B5C9B200290BD1A9
